:020000042000DA
:10000000A0070120C1010020EF2000207112002074
:10001000ED200020890300202F3200200000000086
:10002000000000000000000000000000352A002051
:1000300081040020000000006D2100200D2B002015
:10004000DB010020DB010020DB010020DB010020C0
:10005000DB010020DB010020DB010020DB010020B0
:10006000DB010020DB010020DB010020DB010020A0
:10007000DB010020DB010020DB010020DB01002090
:10008000DB010020DB010020DB010020DB01002080
:10009000DB010020DB010020DB010020DB01002070
:1000A000DB010020DB010020DB010020DB01002060
:1000B000DB010020DB010020DB010020DB01002050
:1000C000DB010020DB010020DB010020DB01002040
:1000D000DB010020DB010020DB010020DB01002030
:1000E000DB010020DB010020DB010020DB01002020
:1000F000DB010020DB010020DB010020DB01002010
:10010000DB010020DB010020DB010020DB010020FF
:10011000DB010020DB010020DB010020DB010020EF
:10012000DB010020DB010020DB010020DB010020DF
:10013000DB010020DB010020DB010020DB010020CF
:10014000DB010020DB010020DB010020DB010020BF
:10015000DB010020DB010020DB010020DB010020AF
:10016000DB010020DB010020DB010020DB0100209F
:10017000DB010020DB010020DB010020DB0100208F
:10018000DB010020DB010020DB010020DB0100207F
:10019000DB010020DB010020DB010020DB0100206F
:1001A000DB010020DB010020DB010020DFF80CD0A8
:1001B00000F06EF800480047BD380020A00701207D
:1001C0000648804706480047FEE7FEE7FEE7FEE7F1
:1001D000FEE7FEE7FEE7FEE7FEE7FEE7712B002005
:1001E000AD01002040EA01039B0703D009E008C9E4
:1001F000121F08C0042AFAD203E011F8013B00F8EC
:10020000013B521EF9D27047D2B201E000F8012B37
:10021000491EFBD270470022F6E710B513460A4686
:1002200004461946FFF7F0FF204610BD2DE9F05FA8
:100230000546002092469B46884606468146402455
:100240001BE0284641464746224600F042F8534606
:100250005A46C01A914110D311461846224600F062
:1002600029F82D1A67EB01084F462246012000218C
:1002700000F020F817EB00094E41201EA4F1010404
:10028000DFDC484631462A464346BDE8F09F000081
:10029000064C074D06E0E06840F0010394E80700D3
:1002A00098471034AC42F6D3FFF784FF084C002087
:1002B000284C0020202A04DB203A00FA02F100201A
:1002C00070479140C2F1200320FA03F31943904094
:1002D0007047202A04DB203A21FA02F000217047FF
:1002E00021FA02F3D040C2F120029140084319469E
:1002F000704770B58C1810F8015B15F0070301D139
:1003000010F8013B2A1106D110F8012B03E010F878
:10031000016B01F8016B5B1EF9D12B0705D400239B
:10032000521E0DD401F8013BFAE710F8013BCB1A3D
:10033000921C03E013F8015B01F8015B521EF9D532
:10034000A142D8D3002070BD7CB50121080201F084
:100350000FFF4FF40064009401208DF8040000208A
:100360008DF8060002208DF807008DF80500054D78
:100370006946284600F058F92146284600F0A2F9BF
:100380007CBD000000200240FEE710B50121CC0535
:10039000204601F0FBFE2046BDE81040002101F0A0
:1003A000F5BE000001460020024A52680A4200D011
:1003B0000120704700B0024030B500242A4B196874
:1003C0002A4A114019601968026811431960596B73
:1003D00021F007015963596B426811435963416821
:1003E000002928D001292DD0022930D0032933D06B
:1003F000C1680A010169090244692403856821432F
:1004000015430D43996B0D439D638169D963196C45
:100410006FF30D011964196CC26911431964818C61
:1004200009045A6C02F040425A645A6C006A024352
:100430000A435A6430BDC1680A02018A0904047D76
:100440002406DBE7C1680A02018A0904D6E7C1680D
:100450004A010169C902D1E7C1684A0101698902FB
:100460004469E403CAE7000000B00240FCE0FCFF7E
:100470000248016841F001010160704700B002408C
:10048000704710B502F0BCFE02F0DEFDBDE8104082
:1004900002F010BE01B502E00098401E00900098E6
:1004A0000028F9D108BD01B502E00098401E009077
:1004B00000980028F9D108BD00224FF020431028F1
:1004C0000AD0B0F5807F09D0B0F5805F09D0D3F8AD
:1004D0005801814309D107E0586EFAE7D3F8840048
:1004E000F7E7D3F8A400F4E70122104670470000B4
:1004F000D0E9001211438268C068521E520142EADC
:10050000402001430148016070470000500100A0F5
:1005100070B50468A100A1F1C041D1F84011CE0B23
:10052000F603D0E901121143D0E903231A43114322
:100530004269C36911438269056A11431943426ADA
:100540002943114331434FF02046002C3CD0D6F8CC
:1005500040416FF30E042B4322431343C6F840314E
:1005600002689200A2F1C042C2F84011016871B362
:100570008900A1F1C041D1F8481101F07043816AAE
:100580000A684C68521E641E42EA04148A68521EAD
:1005900044EA02240A8A521E44EA02421A43D6F866
:1005A000483103F07043CC68898A641E2403491ED5
:1005B00044EA01511943C6F8481100688000A0F1CF
:1005C000C040C0F8482170BDC6F84011CEE7FFE733
:1005D000D6F8481101F07041806A02684368521EE3
:1005E0005B1E42EA03138268521E43EA0223C2687A
:1005F000521E43EA0233028A521E43EA0243828AAF
:10060000007E521E43EA0252401E42EA0060084346
:10061000C6F8480170BD000002490A6842EA40007D
:1006200008607047540100A02DE9F0410022012725
:100630004FF0030C07FA02F50B682B40AB422CD1AC
:10064000066853000CFA03F4A64306600E79D0F84E
:1006500000809E4046EA080606600E79012E01D011
:10066000022E12D18668A64386604E79D0F80880A3
:100670009E4046EA080686604668AE434660456886
:100680008E799640B6B235434560C568A543C560CE
:10069000CC799C40C3681C43C460521C102AC9D347
:1006A000BDE8F08110B54B07DB0E9A40C90800EB9E
:1006B0008100016A0F249C40A1430162016A114339
:1006C000016210BD41837047018370472DE9FE4FE1
:1006D0000020009001900290334FDFF8D0803878EE
:1006E00000EB400008EB40008088401C010A8DF8B8
:1006F00000108DF801000A226946BA2000F096F831
:10070000002802DA0020BDE8FE8F9DF802009DF867
:10071000031000EB01201FFA80F99DF804009DF8FA
:10072000051000EB01201FFA80FA40F29B2120A067
:1007300002F07EFD6E4625A002F07AFD00240A2517
:10074000315D28A002F074FD601C90FBF5F105FB03
:10075000110010B925A002F06BFD641C0A2CEFDB20
:1007600022A002F065FD387800EB400008EB400065
:100770008088801D010A8DF800108DF80100032289
:100780006946BA2000F052F8002801DA0020BAE7E2
:100790009DF8020000F003035246494614A002F0FF
:1007A00047FD0120AFE7000010000120404B002072
:1007B0003C3C2D4754502D44454255472D3E3E204C
:1007C0005B25645D5245530A000000003C3C2D4708
:1007D00054502D44454255472D41525241592D3ECA
:1007E0003E0A000025303278202020000A00000058
:1007F0003C3C2D4754502D494E464F2D3E3E2058EF
:100800005F4D4158203D2025642C20595F4D4158B3
:10081000203D2025642C2054524947474552203D15
:10082000203078253032780A00000000F0B587B01B
:100830000E4617464FF0FF3500240021ADF8061094
:100840008DF804000221ADF8081003960121ADF8DF
:1008500012108DF81000B81EADF81400B01C0690F0
:1008600007E0022101A800F016FF0546022D02D084
:10087000641C052CF5DB052C08DB707831782B46E1
:1008800040EA0121BA1E034802F0D2FC07B0284614
:10089000F0BD0000644B002038B5002000901248E5
:1008A000007800EB4001114800EB41008088010A0C
:1008B0008DF800108DF801000024651E0DE0032264
:1008C0006946BA20FFF7B2FF45B2002D01DD284688
:1008D00038BD214606A002F0ABFC2046641CE4B201
:1008E0000528ECD3284638BD10000120404B0020DD
:1008F0003C3C2D4754502D4552524F522D3E3E20E8
:1009000047545020693263207465737420666169AE
:100910006C65642074696D652025642E0A000000F2
:10092000FEB50E4617464FF0FF3500240021ADF806
:1009300002108DF80000ADF80470029607E0012166
:10094000684600F0A8FE0546012D02D0641C052C67
:10095000F5DB052C08DB707831782B4640EA012165
:10096000BA1E024802F064FC2846FEBDB44B0020CB
:10097000704700002DE9F043CBB04FF0FF3700F097
:1009800081FEFFF789FF0446002C06DA91A002F0F1
:100990004FFC20464BB0BDE8F08300F0CFF94FF498
:1009A000817003F0AFF80446DFF85492954999F846
:1009B000000000EB400001EB40008088000A20703E
:1009C00099F8000000EB400201EB420109796170E7
:1009D00030B1012807D0022809D003280BD00DE040
:1009E000894EBA250AE0884EBA36BA2506E0854E09
:1009F000F03EEF2502E0824E0B36EF254FF480717A
:100A0000A01CFFF708FC2A463146A01CFFF7EAFBB2
:100A10002A4640F2F5217DA002F00AFC2A4640F267
:100A2000F62184A002F004FC8BA002F001FC002659
:100A30004FF00A08A15D8EA002F0FAFB701C90FB3B
:100A4000F8F108FB110010B96CA002F0F1FB761C64
:100A5000062EEFDB69A002F0EBFB2020E070032004
:100A60002071E02060710126A671002099F8001025
:100A7000012905D021B1022911D003290FD02DE081
:100A80000221AA1C03E0635C184480B2491C914215
:100A9000F9DBC143491C60198170C6701EE0022158
:100AA0006A1E08E0631814F801C05B7800EB0C20A4
:100AB000184480B2891C9142F4DB40421FFA80F94D
:100AC0004A464FF447716CA002F0B2FB60194FEA3E
:100AD000192100F8011C04F80590467000262A1D13
:100AE0002146BA20FFF71CFF002802DC761C052EE9
:100AF000F5DB6D48FFF7D7FC20788DF800006078B3
:100B00008DF801004FF496726946BA20FFF78EFE09
:100B10004FF44F7165A002F08BFBE9464EA002F046
:100B200087FB00260EE019F8061051A002F080FBAA
:100B3000701C90FBF8F108FB110010B92FA002F017
:100B400077FB761CAE42EEDB2CA002F071FB4FF47B
:100B500050715DA002F06CFB3FA002F069FB002623
:100B60000DE0A15D42A002F063FB701C90FBF8F168
:100B700008FB110010B921A002F05AFB761CAE420E
:100B8000EFDB1EA002F054FB032168466D1E0DE052
:100B9000625C435C9A4207D052A002F049FB2046B7
:100BA00002F064FE3846F5E6491C89B2A942EFDB43
:100BB000A94205D10A464FF4547154A002F038FB03
:100BC000204602F053FEFFF7D3FEFFF77FFD002023
:100BD000E0E600003C3C2D4754502D4552524F5208
:100BE0002D3E3E2049324320636F6D6D756E696303
:100BF0006174696F6E204552524F52210A00000005
:100C000010000120404B0020DC4800203C3C2D47D8
:100C100054502D44454255472D3E3E205B25645D92
:100C20006366675F696E666F5F6C656E203D202549
:100C300064200A003C3C2D4754502D444542554702
:100C40002D3E3E205B25645D6366675F6E756D209B
:100C50003D202564200A00003C3C2D4754502D4483
:100C6000454255472D41525241592D3E3E0A000002
:100C700025303278202020003C3C2D4754502D4414
:100C8000454255472D3E3E205B25645D436F6E66B1
:100C9000696720636865636B73756D3A20307825EA
:100CA0003034580A00000000FFFF0F003C3C2D4785
:100CB00054502D44454255472D3E3E205B25645DF2
:100CC00072656164200A00003C3C2D4754502D445D
:100CD000454255472D3E3E205B25645D7772697421
:100CE00065200A003C3C2D4754502D4552524F522E
:100CF0002D3E3E20436F6E666967206661696C20F9
:100D0000212069203D202564200A00003C3C2D471D
:100D100054502D44454255472D3E3E205B25645D91
:100D2000436F6E6669672073756363657373202113
:100D30002069203D202564200A000000F0B585B020
:100D40006548C1688068CDE90301082203A9BA207B
:100D5000FFF76CFD0446200005D560A002F068FA9C
:100D6000204605B0F0BD9DF81030674D312B18D0EE
:100D70000026352B39D0382B5FD0372B78D09DF813
:100D800013009DF81120CDE900209DF8121002916A
:100D90009DF80F209DF80E105CA002F049FA204645
:100DA000DFE79DF80E10392903D19DF80F20312A75
:100DB0000ED09DF813209DF81150CDE900529DF8FA
:100DC000120002909DF80F2050A002F031FAE6E7E1
:100DD0009DF812609DF81300CDE9000659A002F0BD
:100DE00027FA012028706870D9E79DF80E1039297C
:100DF00007D19DF80F20312A03D19DF81100372823
:100E00000ED09DF813209DF81150CDE900529DF8A9
:100E1000120002909DF80F203CA002F009FABEE7F4
:100E20009DF812709DF813C0CDE901C7009051A044
:100E300002F0FEF92E706E70B1E79DF80E103529A4
:100E400007D19DF80F20362A03D19DF811003828CC
:100E50000FD09DF813009DF81150CDE900509DF87A
:100E6000122002929DF80F2028A002F0E1F996E7E7
:100E70000DE09DF812609DF81370CDE901760090A9
:100E800048A002F0D5F902202870687087E79DF825
:100E900013109DF81120CDE900219DF81200029059
:100EA0009DF80F209DF80E1032A002F0C1F99DF8B8
:100EB0000E0039288BD19DF80F00312887D19DF87D
:100EC0001000372890D19DF8110053288CD10320B1
:100ED00028706E7063E70000CC4800203C3C2D4732
:100EE00054502D4552524F522D3E3E2047545020D3
:100EF000726561642076657273696F6E20666169E0
:100F00006C65640A00000000100001203C3C2D4785
:100F100054502D494E464F2D3E3E20556E6B6E6F00
:100F2000776E2049432056657273696F6E3A2025AB
:100F3000632563256325635F253032782530327859
:100F40000A0000003C3C2D4754502D494E464F2D81
:100F50003E3E204943312056657273696F6E3A20D8
:100F60002563256325635F25303278253032780A82
:100F7000000000003C3C2D4754502D494E464F2D5B
:100F80003E3E204943322056657273696F6E3A20A7
:100F900025632563256325635F253032782530324C
:100FA000780A00003C3C2D4754502D494E464F2DA9
:100FB0003E3E204943332056657273696F6E3A2076
:100FC00025632563256325635F253032782530321C
:100FD000780A000000F07CB87CB506460D46144641
:100FE000CDE900432B4632464FF4B47106A002F01F
:100FF0001FF9A1B2A8B201F0D9FE0F4820F816508F
:101000000A3020F816407CBD3C3C2D4754502D44FE
:10101000454255472D3E3E205B25645D49443A25B7
:10102000642C20583A25642C20593A25642C2057EA
:101030003A25640A000000000A01012070B5044648
:101040000B4EA6F10A0536F8141035F8140001F01D
:1010500065FF4FF0FF3025F8140026F814002246F3
:10106000BDE870404FF4C97102A002F0E1B8000081
:10107000140101203C3C2D4754502D444542554716
:101080002D3E3E205B25645D546F75636820696466
:101090005B2532645D2072656C65617365210A00B1
:1010A0000A0AC9B2A13AC2EB021303EB421201EBE6
:1010B0004201A13901EBC1018901CA1701EB52714B
:1010C000C910024A1144482201F086BB0040EE00DC
:1010D0002DE9F04F97B04CA00068169028210DF133
:1010E0002C090CA8FFF797F8484C20680B904FF09C
:1010F000BA0B00260C220BA95846FFF797FB0146B6
:10110000002905DA42A002F093F817B0BDE8F08F8D
:101110009DF82E000028F8D0010669D500F00F05D3
:10112000052D65D8012D14D9242101AF381DFFF7F5
:1011300072F860680190681E022101EBC00204464B
:1011400001A95846FFF772FBE200B91C0EA8FFF791
:1011500049F8DFF8ECA00AF10608BAF80400A84242
:1011600015D818E000246F1E0EE009EBC400C0780B
:1011700000F00F0118F80600884207D0BC4201DBDE
:10118000FFF75CFF641CE4B2AC42EED3761CBAF805
:1011900004008642E6DBDDB1002416E009EBC40062
:1011A000C17801F00F0608F804600179427941EA3C
:1011B00002218279C37942EA0322037A407A43EA20
:1011C00000233046FFF708FF641CAC42E6DB0DE06D
:1011D000BAF8040050B1002404E018F80400FFF746
:1011E0002DFF641CBAF804008442F6DBAAF8045010
:1011F000032216A95846FFF793FB002885DA11A0B1
:1012000002F016F881E70000814E0000CC48002073
:101210003C3C2D4754502D4552524F522D3E3E20BE
:10122000493243207472616E736665722065727212
:101230006F722E206572726E6F3A25640A200A0062
:10124000100001203C3C2D4754502D494E464F2D57
:101250003E3E2049324320777269746520656E6492
:101260005F636D64206572726F72210A0000000076
:10127000FEE7002904D0018841F4806101807047B5
:10128000018821F4806101807047034600209A8A1A
:101290001B8B1B041A4322F07F42914300D1012093
:1012A0007047002904D0018841F001010180704796
:1012B000018821F001010180704700002DE9FC4107
:1012C0000121880500F07EFF01214FF4C47000F079
:1012D0004FFF0121880300F083FF204F04221146B5
:1012E0003846FFF7DFF9042205213846FFF7DAF91F
:1012F0001020009002248DF804408DF8054001254F
:101300008DF8065000268DF8076069463846FFF7CD
:101310008BF92020009069463846FFF785F9E001F7
:1013200000908DF804508DF805408DF806608DF81A
:10133000074069460A48FFF777F9200300908DF8C7
:1013400004508DF805408DF806608DF80740694619
:101350000448FFF769F9BDE8FC810000001C024069
:1013600000200240000C0240002904D0018841F412
:10137000807101807047018821F48071018070477D
:10138000002904D0018841F4007101807047018870
:1013900021F40071018070470CB5024600200092D4
:1013A0000A0F019221F07F41019A002A03D0009A8E
:1013B0001432009203E0090C009A18320092009A4D
:1013C00012680A4200D001200CBD00007FB504461F
:1013D0000D46A08820F03F06684600F00FFF0298F7
:1013E0002749B0FBF1F189B20E43A680228822F092
:1013F00001022280234B2A689A4209D85200B0FB8E
:10140000F2F080B2042800D20420491C218423E099
:10141000EB88A3F53F46FF3E0BD002EBC20303EB84
:101420000212B0FBF2F080B240F48040020506D018
:1014300007E002EB4202B0FBF2F080B2F6E740F0C8
:10144000010040F400404FF4967251434FF47A7219
:10145000B1FBF2F1491C2184A083208840F00100F7
:10146000208020884FF6F5310840A9886A89114309
:1014700001432180A8892989084320817FBD00007C
:1014800040420F00A08601001FB50020ADF8040007
:101490004BF6FF70ADF806000A20ADF808004FF4D7
:1014A0008060ADF80A000001ADF80C00074800901C
:1014B000074C69462046FFF789FF01212046FFF7C8
:1014C000F0FE01212046FFF7D4FE1FBD801A060062
:1014D000005800402DE9F04780460D461446344E32
:1014E0004FF4204030604FF40037DFF8C89007E039
:1014F0003168481E306003D2BDE8F04700F0AAB85A
:1015000039464846FFF748FF0028F1D101214846F7
:10151000FFF72AFF4FF480573760DFF89CA007E001
:101520003168481E306003D2BDE8F04700F092B841
:1015300051464846FFF7A9FE0028F1D00122414656
:10154000484600F07BF837601B4F7F1C07E031688E
:10155000481E306003D2BDE8F04700F07BB8394642
:101560004846FFF792FE0028F1D0134E3F3615E0B3
:10157000012C07D100214846FFF77BFE0121484698
:10158000FFF7FEFE31464846FFF77FFE30B1484682
:1015900000F014F805F8010B641EA4B2002CE7D18A
:1015A00001214846FFF765FE0020BDE8F0870000F6
:1015B0000C0001200058004001000300008AC0B266
:1015C000704700002DE9FC474FF4005600960120BB
:1015D0008DF8040002248DF8054000258DF8065092
:1015E0008DF80740124F69463846FFF71DF8DFF8BF
:1015F00044904FF4807841464846FFF763F8DFF89F
:1016000038A05046FEF746FF41464846FFF75CF8D3
:101610005046FEF73FFF00968DF804508DF80540C8
:101620008DF8075069463846FEF7FEFFBDE8FC8797
:10163000000C024000200240FFFF0F00002A02D0F1
:1016400041F0010101E001F0FE01018270470182D9
:101650007047000010B502A001F0EAFDFF2010BDA8
:101660003C3C2D4754502D4552524F522D3E3E206A
:101670004932432054696D656F7574206572726FCD
:1016800072210A0010B5FFF719FEFFF7FDFEBDE855
:101690001040FFF797BF70B505460E4600240020A6
:1016A00014E004EB440005EB80039978C90706D0E9
:1016B0009A8815F820009968FFF70CFF05E01A7961
:1016C00015F82000996800F009F8641C08B9B442C4
:1016D000E7D1002800D1204670BD00002DE9F04779
:1016E00080460D461446364E4FF4204030604FF48D
:1016F0000039344F07E03068411E316003D2BDE845
:10170000F047FFF7A7BF49463846FFF745FE0028D8
:10171000F1D101213846FFF727FE4FF48059C6F872
:101720000090DFF8A4A007E03068411E316003D2CA
:10173000BDE8F047FFF78EBF51463846FFF7A5FDDD
:101740000028F1D0002241463846FFF777FFC6F85F
:101750000090DFF8788007E03168481E306003D2DF
:10176000BDE8F047FFF776BF41463846FFF78DFDED
:101770000028F1D0DFF8548008F1020815E029783C
:101780003846FFF764FF6D1CC6F8009007E030682C
:10179000401E306003D2BDE8F047FFF75BBF414613
:1017A0003846FFF772FD0028F1D0641EE4B2E6D29D
:1017B00001213846FFF7E4FD0020BDE8F087000076
:1017C0000C000120005800400100030082000700C7
:1017D00010B500F079F900F029FB00F07FFB00F074
:1017E000F1FA012000F0C0FBBDE8104000F05EBB44
:1017F0002DE9FC5F0546DDE90C760C4692469B46DA
:101800004FF4F0784FF4487937E07E2818D804F187
:101810000C01414502D90024183DADB205F10C017F
:10182000494501D900250024CDE900705B465246A8
:101830002146284601F0F6FF0C34A4B2761C1CE0C9
:1018400004F11800404502D90024183DADB205F15D
:101850001800484501D9002500243088010201EB19
:10186000102080B2CDE900705B46524621462846E2
:1018700001F048FF1834A4B2B61C30780028C4D157
:10188000BDE8FC9F2DE9F047089E52420024022546
:1018900005EB4205370C1FFA86FC0E1906EBC6094C
:1018A000A0EB020809EB061608EB461923F829C03D
:1018B00003EB8909A9F8027000EB020909EB46164F
:1018C00023F826C003EB860677800E1B06EBC60ABC
:1018D0000AEB061609EB461923F829C003EB890920
:1018E000A9F8027008EB461623F826C003EB86061B
:1018F00077802E46A64208DC641C05EB44056D1C6F
:10190000E24202D1964200DC0026964203DD521CE0
:1019100005EB42056D1C002ABFDDBDE8F0872DE90F
:10192000FF4F85B08046129F8A469946079803214B
:10193000A1EB40060024079D45E0DDB14FF6FF70A6
:1019400000EA4502AAEB050081B2CDE900970490B8
:10195000A8EB0400934680B2012300F077F80498C6
:10196000CDE9009781B208EB04005A4680B201230A
:1019700000F06CF8DCB14FF6FF7000EA4402AAEB0D
:10198000040081B2CDE900970390A8EB05009346CF
:1019900080B2012300F05AF80398CDE9009781B294
:1019A00008EB05005A4680B2012300F04FF8002EE4
:1019B00003DA06EB8406B61D04E0601B06EB800626
:1019C0000A366D1E641CAC42B7D94B46009751468F
:1019D0004046079AFFF756FF09B0BDE8F08F2DE9A2
:1019E000F0478AB01546DDE912249A4601EBC1039F
:1019F00003EB011100EB411002EB80064FEA146982
:101A0000C4F30747C4F30728E4B2FEF7BEFC4FF463
:101A10004030009000200190CDF80C800294049793
:101A2000CDF814900696C5F548700790CDF820A023
:101A300009956846FEF7C0FCFEF71AFD0220FEF786
:101A4000B1FC0028FAD00AB0BDE8F0872DE9F047D4
:101A50008AB01546DDE912249A4601EBC10303EB77
:101A6000011100EB411002EB80064FEA1469C4F348
:101A70000747C4F30728E4B2FEF787FC4FF4403071
:101A8000009000200190CDF80C8002940497CDF8CE
:101A9000149006960121BAF1000F11D040F21F30C8
:101AA0000790089509916846FEF786FCFEF7E0FC72
:101AB0000220FEF777FC0028FAD00AB0BDE8F087D4
:101AC000079008910995EEE72DE9FC5F012140F2AE
:101AD000FF1000F04DFB4FF00408CDF8008002200D
:101AE0008DF805008DF8040000208DF806008DF8B3
:101AF00007006946AA48FEF797FD0E220221A84872
:101B0000FEF7D0FD4FF00809CDF800906946A448D3
:101B1000FEF78AFD0E220321A148FEF7C3FD4FF414
:101B2000807ACDF800A069469D48FEF77DFD0E2223
:101B300008219B48FEF7B6FD0124009469469948A8
:101B4000FEF772FD092200219648FEF7ABFD4FF427
:101B5000006BCDF800B069469348FEF765FD0E2294
:101B60000B219148FEF79EFD2003009069468E48A8
:101B7000FEF75AFD0E220C218B48FEF793FD022042
:101B8000009069468748FEF74FFD092201218548EC
:101B9000FEF788FD4025009569468448FEF744FD20
:101BA0000E2206218148FEF77DFD20200090694627
:101BB0007F48FEF739FD0E2205217D48FEF772FDB4
:101BC000009569467A48FEF72FFD0E2206217848D7
:101BD000FEF768FD6003009069467148FEF724FD3A
:101BE0000E220D216E48FEF75DFDA60200966946A5
:101BF0006E48FEF719FD09220A216C48FEF752FDD6
:101C0000E003009069466648FEF70EFD0E220F21A4
:101C10006348FEF747FD009469466648FEF704FDF9
:101C20000E2200216348FEF73DFD8027009769469C
:101C30006148FEF7F9FC0E2207215F48FEF732FDEE
:101C4000CDF8008069465B48FEF7EEFC0E220221CB
:101C50005848FEF727FD4FF01008CDF80080694680
:101C60005348FEF7E1FC0E2204215148FEF71AFD0D
:101C70002003009069464D48FEF7D6FC0E220C2149
:101C80004A48FEF70FFD00954C4D69462846FEF781
:101C9000CBFC0E2206212846FEF704FDCDF800B04D
:101CA00069464248FEF7C0FC0E220B213F48FEF772
:101CB000F9FCCDF8008069463E48FEF7B5FC0E22DF
:101CC00004213C48FEF7EEFCCDF80090694636480A
:101CD000FEF7AAFC0E2203213348FEF7E3FCCDF801
:101CE00000A069462F48FEF79FFC0E2208212D48D0
:101CF000FEF7D8FC4FF40079CDF8009069462948EA
:101D0000FEF792FC0E2209212648FEF7CBFC009735
:101D100069462648FEF788FC0E2207212348FEF775
:101D2000C1FC009669462348FEF77EFC0E220A217C
:101D30002048FEF7B7FCCDF8009069461D48FEF735
:101D400073FC0E2209211B48FEF7ACFC00961C4ECA
:101D500069463046FEF768FC0E220A213046FEF73F
:101D6000A1FCCDF8008002208DF805008DF804401C
:101D700000208DF806008DF8074069462846FEF7DA
:101D800053FC009769462846FEF74EFC1021284672
:101D9000FEF79AFC80212846FEF796FCBDE8FC9FE2
:101DA000001C0240000402400000024000180240F3
:101DB000001002400020024000080240000C0240D7
:101DC0000014024010B590B03020009040F24F3027
:101DD0000190192002904FF4FC70039000210491AF
:101DE000FF20059008900790069009914FF4C0607D
:101DF0000A9007200B904FF050400C9040F6834023
:101E00000D90C01E0E904FF4F0700F90064C694676
:101E1000204600F019F90121204600F009F90120BF
:101E200000F05EF910B010BD8468014000B58FB0BD
:101E30000121880600F0D4F90121C80500F098F9C5
:101E400002221421C82000F057FA4FF4003000F0AD
:101E500043FA012000F04AFA3D2000F021FA002860
:101E6000FAD000200090019002900390FF200C9087
:101E70000D900E900120049005902F2006901820C0
:101E8000079040F24F3008904FF4FC70099040F2F8
:101E900021400A9040F20E200B90684600F074F842
:101EA000012000F051F80FB000BD000070B54FF0F8
:101EB0005041094A002300244FF448754FF4F0764E
:101EC000002010C110C2401C80B2A842F9D35B1C94
:101ED0009BB2B342F4D370BDC87017D010B590B0A8
:101EE0003020009040F24F300190192002904FF4C2
:101EF000FC70039000210491FF200590089007904A
:101F0000069009914FF4C0600A9007200B900C488E
:101F10000C9040F683400D90C01E0E904FF4F07070
:101F20000F90084C6946204600F08EF801212046AB
:101F300000F07EF8012000F0D3F810B010BD0000D2
:101F4000C87017D0046901400649002804D0086809
:101F500040F0010008607047086820F00100086048
:101F600070470000186801400649002804D008683E
:101F700040F4803008607047086820F480300860C2
:101F8000704700001868014030B5264A136826499A
:101F90000B401360038A1B04146845692C431C43DF
:101FA0001460121D13680B401360038B1B0414682C
:101FB000C5692C431C431460121D13680B40136049
:101FC000038C1B041468456A2C431C431460121DC7
:101FD00013680B401360018D09041368C46A23431E
:101FE0000B431360111D0A68104B1A400A60D0E9B8
:101FF00000231A43D0E9023423431A430B681A43DF
:102000000A60416B0A02018E0B04064924310C68F8
:1020100004F07F440C600C68806B134304431C4342
:102020000C6030BD0868014000F800F08F88FE0F9A
:10203000002904D0016841F0010101607047016886
:1020400021F001010160704770B58A88120443686D
:1020500003F4704343600B68134343608A8912049E
:10206000836803F4704383608B6813438360026961
:1020700022F0070202610A690261CA6913020A8C2E
:10208000120491F8244024068569002585618E6933
:1020900022431E4316438661426922F0FF024261D9
:1020A0004A694261C26940F207739A43C261D1E949
:1020B0000A231A43C261826A85620A6B82620A8FAE
:1020C0001204C36A03F0E023C3624B6B1343C36281
:1020D000026B6FF30A020263C96B016370BD0000FB
:1020E000014908607047000024680140FEE770471E
:1020F00030B50F23C27801250178002A1FD0154A78
:10210000126802F4E062C2F5E062C2F30722C2F193
:102110000404D3404278A24084781C401443220136
:1021200001F1E02181F80024007800F01F018D40CA
:102130004009800000F1E020C0F8005130BD01F0FE
:102140001F0085404809800000F1E020C0F8805160
:1021500030BD00000CED00E0024908430249086070
:10216000704700000000FA050CED00E07047000029
:10217000054A002903D011680143116070471168B6
:10218000814311607047000030380240054A002941
:1021900003D01168014311607047116881431160D9
:1021A0007047000010380240054A002903D011682A
:1021B000014311607047116881431160704700004E
:1021C00038380240054A002903D0116801431160E4
:1021D0007047116881431160704700004038024029
:1021E000054A002903D01168014311607047116846
:1021F00081431160704700004438024070B5244BA1
:10220000196801F00C01234C00291ED0224E04292C
:102210001DD008291DD00460196801F0F0010909DA
:102220001E4A545C0168E14041601C6804F4E054BB
:10223000A40A145D21FA04F484601B6803F460436B
:102240005B0BD25CD140C16070BD0460E4E7066006
:10225000E2E70F4A121F1168C1F38055116801F0BF
:102260003F0135B1B6FBF1F11468C4F38814614342
:1022700005E0B4FBF1F11468C4F3881461431268FB
:10228000C2F30142521C5200B1FBF2F10160C3E7FC
:10229000083802400024F40040787D013801012014
:1022A00002460020510901290BD002290DD009490D
:1022B000096802F01F02012393400B4200D0012065
:1022C0007047044974390968F3E70249091F09682E
:1022D000EFE7000074380240034A116821F44031EE
:1022E00001431160704700008C38024001490867C3
:1022F0007047000000004742800140EA0160024947
:1023000040EA027008607047883802402DE9FC5F9F
:102310000121FC20FFF72CFF02208DF804008DF82E
:10232000050000208DF806008DF8070001200090C0
:102330006946D848FEF778F90C220021D548FEF707
:10234000B1F9022000906946D248FEF76DF90C22DF
:102350000121D048FEF7A6F9042600966946CD482B
:10236000FEF762F90C220221CA48FEF79BF9082009
:1023700000906946C748FEF757F90C220321C5486B
:10238000FEF790F94FF01009CDF800906946C1486A
:10239000FEF74AF90C220421BE48FEF783F94FF0FC
:1023A000200ACDF800A06946BA48FEF73DF90C2294
:1023B0000521B848FEF776F9B70200976946B54897
:1023C000FEF732F90C221146B248FEF76BF94FF4D2
:1023D0000058CDF800806946AE48FEF725F90C227A
:1023E0000D21AC48FEF75EF9350300956946A94812
:1023F000FEF71AF90C220E21A648FEF753F96C00DD
:1024000000946946A348FEF70FF90C220F21A1485A
:10241000FEF748F90120009069469F48FEF704F94D
:102420000C2200219C48FEF73DF9022000906946ED
:102430009948FEF7F9F80C2201219748FEF732F986
:10244000009669469448FEF7EFF80C220221924864
:10245000FEF728F9CDF8009069468F48FEF7E4F8BA
:102460000C2204218C48FEF71DF9CDF800A0694626
:102470008948FEF7D9F80C2205218748FEF712F9A2
:10248000009569468548FEF7CFF80C220E21834857
:10249000FEF708F9009469468048FEF7C5F80C225B
:1024A0000F217E48FEF7FEF80120009069467B4828
:1024B000FEF7BAF80C2200217848FEF7F3F8022064
:1024C000009069467548FEF7AFF80C220121734869
:1024D000FEF7E8F84FF08009CDF8009069467048A3
:1024E000FEF7A2F80C2207216D48FEF7DBF8E61193
:1024F000009669466A48FEF797F80C22082168485A
:10250000FEF7D0F84FF4007ACDF800A06946644891
:10251000FEF78AF80C2209216148FEF7C3F84FF450
:10252000806BCDF800B069465D48FEF77DF80C225F
:102530000A215B48FEF7B6F820110090694658481A
:10254000FEF772F80C220B215548FEF7ABF8009706
:1025500069465348FEF768F80C2211465048FEF7CA
:10256000A1F8CDF8008069464D48FEF75DF80C22D1
:102570000D214B48FEF796F8009569464848FEF74E
:1025800053F80C220E214648FEF78CF80094694659
:102590004348FEF749F80C220F214148FEF782F824
:1025A000009669463D48FEF73FF80C2208213B485B
:1025B000FEF778F8CDF800A069463848FEF734F801
:1025C0000C2209213548FEF76DF8CDF800B06946B8
:1025D0003248FEF729F80C220A213048FEF762F84B
:1025E000402000902F4D69462846FEF71DF80C222A
:1025F00006212846FEF756F8012000902A4F69462A
:102600003846FEF711F80C2200213846FEF74AF84A
:102610002111009169461F48FEF706F80C220B2194
:102620001C48FEF73FF8009469461B48FDF7FCFF85
:102630000C220F211848FEF735F800966946164817
:10264000FDF7F2FF0C2208211348FEF72BF8CDF816
:10265000009069462846FDF7E7FF0C22072128462F
:10266000FEF720F80220009069460D48FDF7DCFFD8
:102670000C2201210A48FEF715F801200090694656
:102680000748FDF7D1FF0C2200210548FEF70AF8A4
:10269000BDE8FC9F0014024000180240000C0240FC
:1026A00000100240001C02400008024000B593B038
:1026B000FFF72CFE01210846FFF776FD022001906E
:1026C000072102910422039204910590069007903D
:1026D00001200890099008200A9010200B904020BB
:1026E0000C9080000D9000200E9051020F91490037
:1026F0001091119001A8129008A8FDF709FF00F0B1
:1027000002F813B000BD2DE9FF410126009608250F
:10271000019500240294039420210120FDF7CCFEB2
:102720000028F9D16846FDF7E3FE0A2000F038F8EA
:102730000227009701950294039420210120FDF7C0
:10274000BBFE0028F9D16846FDF7D2FE03200090B9
:1027500001950297039420210120FDF7ADFE00288A
:10276000F9D16846FDF7C4FE40F222200421009111
:1027700001950296039020210120FDF79DFE00287F
:10278000F9D16846FDF7B4FE40F2AB20FDF744FFF7
:1027900020210120FDF790FE0028F9D1BDE8FF813E
:1027A00001B581B0054901984843009002E00098C6
:1027B000401E009000980028F9D10CBDA0860100B1
:1027C000002904D0018841F0400101807047018850
:1027D00021F04001018070472DE9F04104460E468A
:1027E0001546114840270780032000F0A3F8300E5B
:1027F00000F0A0F8C6F3074000F09CF8C6F30720ED
:1028000000F098F8F0B200F095F804E0FF2000F036
:1028100091F804F8010B6D1E681CF7D10248801E68
:102820000780BDE8F08100001A1402402DE9F04352
:1028300087B001212020FFF79BFC01210805FFF74D
:10284000CFFCDFF8BC90052207214846FDF72AFFA0
:10285000052208214846FDF725FF052209214846A3
:10286000FDF720FF8020009002258DF805508DF89F
:10287000045000248DF806408DF80740694648460C
:10288000FDF7D2FEE801009069464846FDF7CCFE10
:102890004FF40078CDF8008069464846FDF7C4FE45
:1028A0004027009701268DF8046069464846FDF7E9
:1028B000BBFE134818300780ADF808404FF4827013
:1028C000ADF80A00ADF80C40ADF80E50ADF8106050
:1028D000ADF81280ADF81440ADF816400720ADF801
:1028E0001800084C02A9204600F067F80121204694
:1028F000FFF766FF00F008F807B0BDE8F0830000BE
:10290000001402400050014070B5094D40242C8055
:10291000152000F00FF8FF2000F00CF8AE1E3480F8
:10292000C00704D12C80B72000F004F8348070BDBB
:102930001A1402402DE9F0410746184C4FF4805517
:102940002560174E09E02068411E216005D2002055
:1029500000F050F8C0B2BDE8F0810221304600F02E
:1029600021F80028EFD03946304600F024F82560E1
:1029700008E021684A1E226004D2012000F03AF8E3
:10298000C0B2E8E70121304600F00CF80028F0D092
:10299000304600F00EF8C0B2DDE700000400012070
:1029A000005001400246002012890A4200D0012056
:1029B0007047808970478181704730B5028802F482
:1029C00041530A884C88CD8822438C882C4322436B
:1029D0000C8922434C8922438C892243CC8922438F
:1029E0001A430280828B22F400628283098A018268
:1029F00030BD000010B5014602A000F019FC002017
:102A000010BD00003C3C2D464C4153482D455252D0
:102A10004F522D3E3E2053504920B5C8B4FDB3ACB3
:102A2000CAB1216572726F72436F6465203D2025C3
:102A3000640A0000704700001CB50021019100915C
:102A40002E4A106840F4803010604FF4A0431068A4
:102A500000F4003000900198401C0190009810B9DB
:102A600001989842F3D11068800302D501200090AC
:102A700000E00091009801283FD1204840300168D3
:102A800041F0805101601E49086840F440400860F0
:102A90001A48083003680360036843F40043036086
:102AA000036843F4A0530360041F164B23601368AC
:102AB00043F08073136013689B01FCD50A6842F4ED
:102AC00080320A604A68D203FCD50A6842F40032B8
:102AD0000A604A689203FCD50B4A40F20571116006
:102AE000016821F003010160016841F00201016009
:102AF0000168C1F381010229FAD11CBD00380240EE
:102B000000700040195A4007003C024010B5074CC5
:102B100020780A2803D300202070FEF75BFA00F02B
:102B20003BF92078401C207010BD000000000120FF
:102B30000C480D490068B0FBF1F0401EB0F1807FF9
:102B400001D301200AE04FF0E0214861074AF0205C
:102B5000107000208861072008610020002800D044
:102B6000FEE7704724010120A086010023ED00E06C
:102B700010B51248016841F4700101601048016805
:102B800041F0010101600E4A002108321160026823
:102B90000C4B1A400260031D0B4A1A60026822F4B3
:102BA0008022026006480C300160FFF745FF0349B0
:102BB0004FF000608039086010BD000088ED00E033
:102BC00000380240FFFFF6FE10300024002904D038
:102BD000018841F0010101807047018821F0010165
:102BE0000180704710B500F0B7F800F09FF800F0D2
:102BF00041F80121BDE810408807FFF7E7BF00005A
:102C000030B5028C22F001020284058C8388028B8D
:102C100022F0700222F003020C88144325F0020215
:102C20008D8915434A882A430D4DA84202D00D4D87
:102C3000A8420FD122F00805CA892A4322F00405D0
:102C40008A882A4323F4807323F400730D8A1D437A
:102C50004B8A2B438380048389684163028430BD9F
:102C60000000014000040140028B22F008020A43E8
:102C70000283704710B586B06020ADF804000120D3
:102C8000ADF806000848008803900020ADF8100059
:102C90004FF0804401A92046FFF7B2FF08212046EB
:102CA000FFF7E2FF06B010BD080001204163704746
:102CB00030B50288164C174DA0420DD0A8420BD05B
:102CC000B0F1804F08D0144B984205D0134B984276
:102CD00002D0134B984203D122F070034A881A4362
:102CE000104B984206D0104B984203D022F4407308
:102CF0000A891A4302804A68C2620A880285A04291
:102D000001D0A84201D1897A01860121818230BD9A
:102D100000000140000401400004004000080040A1
:102D2000000C004000100040001400400EB50121CE
:102D30000846FFF747FAFA20019040F28330ADF8D9
:102D400000000020ADF80800ADF8020069464FF021
:102D50008040FFF7ADFF0EBD1CB501210846FFF70F
:102D600007FA0C4C012205212046FDF79BFC20218F
:102D7000009102218DF8041000218DF806108DF8C5
:102D8000071003218DF8051069462046FDF74CFC1D
:102D90001CBD00000000024003480168002902D069
:102DA0000168491E01607047200101202DE9FC47A0
:102DB00005460C46C82D01D2012000E00020642DFC
:102DC00001D9012100E000210840C82C01D20121D5
:102DD00000E000210840642C01D9012100E000211D
:102DE000DFF82C8108424FF400676FF47F094FF041
:102DF000FF364FF0504A09D0A8F818709621534674
:102E0000322208460096FEF78AFD07E096215346D7
:102E100032220846CDF80090FEF781FDC82D03D27E
:102E20000120642D01D802E00020012100E00021F2
:102E30000840B4F5BE7F01D2012100E00021084026
:102E4000B4F58C7F01D9012100E0002108424FF444
:102E5000A57108D0A8F81870534632229620009623
:102E6000FEF75DFD06E0534632229620CDF8009035
:102E7000FEF755FDB5F5BB7F01D8012000E000202D
:102E8000FA2D01D9012100E000210840B4F5DC7FD2
:102E900001D2012100E000210840282C01D90121A4
:102EA00000E00021084231D04FF07F40CDE900A082
:102EB000A4F11900054681B232234FF496771A46E1
:102EC0003846FEF78CFDCDE900A6ABB232220021D8
:102ED0003846FEF784FD04F11900CDE900A681B261
:102EE0004FF4F07332223846FEF779FD283C04EBAC
:102EF000D470322101EB60010648018001884FF057
:102F00008040FFF7D3FE044901208870BDE8FC87AC
:102F10000020024008000120100001202DE9FC479C
:102F200005460C4645494FF400604883C82D01D240
:102F3000012000E00020642D01D9012100E00021E2
:102F40000840C82C01D2012100E000210840642C77
:102F500001D9012100E00021394EDFF8E880084264
:102F60006FF47F094FF001074FF0504A0CD09621C3
:102F7000534632220846CDF80090FEF7D0FC308848
:102F80000A38308088F80270C82D03D20120642DE1
:102F900001D802E00020012100E000210840B4F542
:102FA000BE7F01D2012100E000210840B4F58C7FF2
:102FB00001D9012100E0002108420DD05346322200
:102FC0004FF4A5719620CDF80090FEF7A8FC30884C
:102FD0000A30308088F80270B5F5BB7F01D8012037
:102FE00000E00020FA2D01D9012100E00021084075
:102FF000B4F5DC7F01D2012100E000210840282C3B
:1030000001D9012100E00021084215D04FF07F4096
:10301000CDE900A0A4F1190081B232231A464FF481
:103020009670FEF7DCFC283C04EBD470322101EBF7
:103030006000308088F80270BDE8FC870020024004
:1030400008000120100001201CB501210846FFF7EF
:103050008FF802208DF8040000218DF80610012160
:103060008DF807108DF80500000200900A4C072229
:1030700009212046FDF716FB69462046FDF7D4FAE4
:103080002115009107220A212046FDF70BFB694616
:103090002046FDF7C9FA1CBD00000240002904D0FB
:1030A000818941F4005181817047818921F4005167
:1030B000818170471FB501211020FFF791F84FF46F
:1030C000E13000900020ADF80C000C21ADF80A10A2
:1030D000ADF80800ADF80600ADF80400074C012279
:1030E00040F22551204600F012F86946204600F0D3
:1030F00029F801212046FFF7D1FF1FBD0010014034
:103100000246002012880A4200D00120704710B504
:1031100040F66A13C1F3421301F01F040121A140DC
:10312000012B07D0022B07D014303AB102680A43B2
:10313000026010BD0C30F8E71030F6E702688A43F1
:10314000026010BD7FB504460D46208A20F4405130
:10315000E88808432082A08941F20C618843A9884D
:103160002A8911436A8902431143A181A08A20F46C
:103170004071A8890843A0826846FFF73FF81E48BF
:10318000844202D01D48844201D1039800E0029895
:10319000A189090408D500EBC00101EB00102968E2
:1031A0004900B0FBF1F007E000EBC00101EB0010BB
:1031B00029688900B0FBF1F06422B0FBF2F109014B
:1031C0000B096FF018056B4300EB8300A3891D0406
:1031D0004FF0320307D503EBC000B0FBF2F000F074
:1031E0000700084306E003EB0010B0FBF2F000F02C
:1031F0000F00084320817FBD0010014000140140F2
:1032000008B54FF4E060FEF7A7FF01208DF801003C
:103210008DF802008DF8030025208DF80000684627
:10322000FEF766FF08BDC1F3080181807047FEE725
:103230000FB4054B10B503A9044A029800F02CF80E
:1032400010BC5DF814FB0000493800204801012043
:103250000FB4084B10B504A902AA039800F01CF89B
:10326000044602A9002000F048FA204610BC5DF890
:1032700014FB0000FB36002002E008C8121F08C142
:10328000002AFAD170477047002001E001C1121FE7
:10329000002AFBD1704700002DE9FF4F8DB00F468B
:1032A0000546002606E025280BD0DDE90F129047E1
:1032B0006D1C761C28780028F5D111B03046BDE889
:1032C000F08F0024A246A1460122EC4900E004430D
:1032D00015F8013F203B02FA03F00842F7D12878A5
:1032E0002A2810D06FF02F022878A0F13001092988
:1032F00014D80AEB8A0102EB410144F0020400EB0E
:10330000010A6D1CF0E701CF5FEA000A03D544F41F
:103310000054CAF1000A44F002046D1C28782E28DB
:1033200017D115F8010F44F004042A280ED06FF0CD
:103330002F022878A0F1300109290AD809EB890168
:1033400002EB410100EB01096D1CF2E757F8049B09
:103350006D1C28786C280FD006DC4C2817D0682804
:103360000DD06A2814D104E0742810D07A280FD127
:103370000DE044F400140AE044F4801401E044F445
:1033800040146978814202D104F580146D1C6D1CD3
:103390002A786E2A1FD00CDC632A31D004DC002A84
:1033A0008BD0582A11D1A3E0642A68D0692A0CD1A5
:1033B00065E0732A2ED004DC6F2A73D0702A04D102
:1033C0009BE0752A6FD0782A6ED01046DDE90F1287
:1033D0009047761C50E1C4F30250022806D003281F
:1033E00009D0042801CF09D0066045E101CFF117CB
:1033F000C0E9006140E101CF06803DE106703BE19C
:1034000017F8040B8DF8000000208DF80100EB4642
:10341000012003E057F804BB4FF0FF3061074FF085
:10342000000102D40DE008F10101884649450FDA98
:103430008045F8DB1BF808100029F4D108E008F1FA
:10344000010188468142FADB1BF808100029F6D1F9
:10345000DDE90F23AAEB08008146214600F036F98A
:10346000304400EB080604E0DDE90F121BF8010B05
:103470009047B8F10108F7D221464846F7E00A2103
:10348000C4F302534FF0000B0891022B04D001CF7C
:10349000C117032B09D00AE0FF1D27F00707F7E843
:1034A000020108E032E01FE020E000B2C117042B67
:1034B00001D140B2C117031E71F1000307DA4FF0CA
:1034C000000CD0EB0C006CEB01012D2302E0230576
:1034D00004D52B238DF82430012303E0E30701D02A
:1034E0002023F7E7984658E00A2110E010210EE06B
:1034F00010204FF0000B08900CE010214FF0000B53
:1035000044F004044FF00809089103E008214FF04B
:10351000000B0891C4F30253022B04D001CF002109
:10352000032B06D006E0FF1D27F00707F7E802018E
:1035300003E080B2042B00D1C0B24FF00008230793
:103540002BD5702A07D0DDF820C08CF0100C5CEA77
:103550000B0C05D00EE040238DF82430012308E049
:1035600050EA010306D030238DF824308DF8252051
:1035700002239846DDF820C08CF0080C5CEA0B0CA6
:103580000BD150EA010301D1630706D530238DF832
:1035900024304FF00108A9F10109582A04D038A2BB
:1035A0000B9208AA0A920BE03AA2F9E75B46089A46
:1035B000FCF73CFE0B9B9B5C0A9A521E0A9213700E
:1035C00050EA0102F2D10A98ADEB000000F1200BA5
:1035D000600702D524F4803401E04FF00109D94599
:1035E00002DDA9EB0B0000E0002000EB0B014144E1
:1035F0000890AAEB010AE00306D4DDE90F23214677
:10360000504600F063F806444FF0000908E009A9AD
:1036100011F80900DDE90F12904709F10109761C44
:10362000C145F4DBE0030CD5DDE90F23214650460C
:1036300000F04CF8064404E0DDE90F12302090471A
:10364000761C0899481E08900029F5DC08E00A98C5
:103650000A990078491C0A91DDE90F129047761CFF
:10366000BBF10001ABF1010BF1DC21465046DDE975
:103670000F2300F019F806446D1C1BE60928010011
:1036800030313233343536373839616263646566D8
:10369000000000003031323334353637383941429A
:1036A00043444546000000002DE9F0410446002552
:1036B0001E461746880404D405E039462020B0474A
:1036C0006D1C641EF9D52846BDE8F0812DE9F04156
:1036D000044600251E469046C80301D5302700E069
:1036E0002027880404D505E041463846B0476D1CC4
:1036F000641EF9D52846BDE8F0810A68531C0B60AA
:10370000107070472DE9F0410E46DDE9065107467D
:1037100090461C462248FDF7C3FC06EBC60101EBB0
:10372000061107EB411008EB800000221C4F00211E
:1037300002EB4206F31993F802C02CFA01FC5FEA8F
:10374000CC7C01D0046000E00560001D491CC9B2BA
:103750000829F0D3002193F801C02CFA01FC5FEA9C
:10376000CC7C01D0046000E00560001D491CC9B29A
:103770000829F0D30021BB5DCB40DB0701D00460FA
:1037800000E00560001D491CC9B20829F3D300F50B
:103790004260521CD2B2182AC9D3BDE8F0810000A1
:1037A00054010120F0B5DDE90556002401EBC10705
:1037B00007EB011100EB411002EB8000002104EB4C
:1037C0004407BA1992F802C02CFA01FC5FEACC7CDB
:1037D00001D0036000E00560001D491C0829F1D3F9
:1037E000002192F801C02CFA01FC5FEACC7C01D0E8
:1037F000036000E00560001D491C0829F1D3002189
:10380000F25DCA40D20701D0036000E00560001DF0
:10381000491C0829F4D300F54260641C0C2CCDD35C
:10382000F0BD00007CB5DDE90654203CE4B2054E55
:1038300004EBC40406EB8404CDE90054FFF7B2FFA7
:103840007CBD0000703B002070B50446064DE1B21F
:103850002846FFF7E8FC80212846FFF751FC0028A6
:10386000F9D0204670BD00000010014010B50028BE
:1038700021D0114B0022001F196803E0814203D8B8
:103880000A4649680029F9D152B11368841A9C424A
:1038900004D1006818441060104602E0506000E057
:1038A000186039B102680B1A934203D10B681A44AD
:1038B00002604968416010BD4C0101208AB0FCF7EC
:1038C000E0FDFDF757F8FFF78DF9FEF7EFFEFEF785
:1038D000ADFFFDF77DFFFFF72BF9FCF735FD6BA082
:1038E0004FF0FF34CDE900404FF07F4843466A4A2D
:1038F000C82140F28A20FDF77BFF684800886421D8
:103900004843FA21B0FBF1F265A102A8FFF7A0FC41
:1039100002AECDE900464FF4FA7A43465E4A96215C
:103920005046FDF765FF5D480088B42132384843B2
:10393000C82190FBF1F25EA102A8FFF789FCCDE956
:1039400000464346544A96214FF4C870FDF750FF95
:103950006FF47F0596214FF05043322208460095C0
:10396000FDF7DDFF00954FF4A5754FF0504332226F
:1039700029469620FDF7D3FF96214FF0504333227E
:103980000846CDF80080FDF77DFF4FF0504333220D
:1039900029469620CDF80080FDF774FF48A04FF02F
:1039A000000BCDE900B043463B4A7E218A20FDF75B
:1039B0001FFF45A0CDE900B04346374A4FF4997147
:1039C0008A20FDF715FF4FF05040CDE90008322363
:1039D0001A4628214FF49670FEF701F83C4F51E04B
:1039E00032202E4D00E0288029883229FBD34FF069
:1039F000FA0901E0A5F800902888FA28FAD8298861
:103A00004FF08040FFF752F9288864214843B0FB0B
:103A1000F9F230A102A8FFF71BFC33A0CDE900406A
:103A2000DFF8749023464A464FF4A5715046FDF7DF
:103A3000DFFECDE9004643464A4696215046FDF753
:103A4000D7FE2888B42132384843C82190FBF1F2D0
:103A500026A102A8FFF7FCFB28A0CDE900404FF407
:103A6000C87523464A464FF487712846FDF7C0FEC5
:103A7000CDE9004643464A4696212846FDF7B8FE62
:103A800087F800B038780128FCD1A9E7B6E6BBFA80
:103A9000BFD8D6C600000000C87017D008000120AB
:103AA000B5B1C7B0D5BCBFD5B1C8A3BA25640000B5
:103AB000B5B1C7B0BDC7B6C8A3BA25640000000041
:103AC000BCF5D0A100000000D4F6BCD3000000007B
:103AD00012000120B5B1C7B0D5BCBFD5B1C8A3BBDA
:103AE000256425250000000020000000B5B1C7B006
:103AF000BDC7B6C8A3BA2564A1E3000020202020DA
:103B000020000000F0B50B30154D20F00701002417
:103B1000144A0FE003688B420BD38B4205D95E1A1F
:103B200043184768C3E9006700E04368136002C0B8
:103B300004E0021D10680028ECD12046002802D1C4
:103B4000286808B10020F0BD064A07481060074AFF
:103B5000121A22F00702C0E9002401202860D7E7EA
:103B6000500101204C010120A4010120A0030120EB
:103B70000000000000000000000000000000000045
:103B80000000000000000000000000000000000035
:103B90000000000000000000000000000000000025
:103BA0000000000FEE380FF03800000000000000A9
:103BB0000000000000000000000000000000010004
:103BC000000600000C000038000031000006000074
:103BD0000C00003800003000000000000000000071
:103BE000C18000C1F800FF800FC18000C18000C10A
:103BF0008000C18000DFF80FE18000C1800000007C
:103C000000000000000001C0E003E0F006304804BE
:103C100018081FFFFE048E080787F00381E00000EC
:103C20000000000003E0000C18000808180C18E061
:103C300003F300001C000063E0038C180C0808006C
:103C40000C180003E00000000003E00007F007E8A4
:103C5000180FFC08081F080FE3C807C0F000107019
:103C6000001F98001008001008000030000000003D
:103C700000003100003200001C00000000000000C5
:103C80000000000000000000000000000000000034
:103C90000000000000000000000000000000000024
:103CA0007F000180C00600300800081000042000DA
:103CB00002000000000000200002100004080008BC
:103CC0000600300180C0007F0000000000000000FE
:103CD0000000000000000000000000006600006618
:103CE00000002400001C0000080003FFC0011800B1
:103CF000003C000024000066000066000000000098
:103D0000080000080000080000080000080001FF8B
:103D1000C0000800000800000800000800000800BB
:103D200000000000000000003100003200001C0014
:103D30000000000000000000000000000000000083
:103D4000000000000000000008000008000008005B
:103D5000000800000800000800000800000800003B
:103D60000800000800000000000000000000000043
:103D7000380000380000380000000000000000009B
:103D80000000000000000000000000000000000033
:103D9000000600001C000070000180000E000038CA
:103DA0000000C0000700001C000030000000000000
:103DB000000000007F8001FFE0038070060018040F
:103DC000000804000806001803807001FFE0007F6F
:103DD000800000000000000000000200080200084F
:103DE00002000803FFF807FFF800000800000800C1
:103DF000000800000000000000000001C01802C020
:103E000038040048040088040308040608060C0867
:103E100003F80801E0780000000000000000000343
:103E2000807003807004000804080804080806185D
:103E30000803F41801E7F00001E0000000000000B2
:103E40000000000003000005000019000021000030
:103E5000C10801010807FFF807FFF8000108000189
:103E6000080001000000000000E007FCD004080882
:103E7000041008041008041008041838040FF00493
:103E800007C0000000000000000000003F8001FFAC
:103E9000E003843002081804100804100804100815
:103EA000071810030FF00007C0000000000000001A
:103EB00000000380000600000400000400F804076E
:103EC000F804180004E000070000060000000000ED
:103ED00000000001C1E003F3F006361004180804E6
:103EE0000808040C08040C0806161803F3F001C1B6
:103EF000E000000000000000F80003FC300306387A
:103F00000402080402080402080404100308F00173
:103F1000FFC0007F00000000000000000000000063
:103F20000000000000000000383800383800383841
:103F30000000000000000000000000000000000081
:103F4000000000000000000000000000301B0030F6
:103F50001C00000000000000000000000000000045
:103F60000000000000000008000014000022000013
:103F70004100008080010040020020040010080081
:103F800008000000000000002200002200002200C3
:103F90000022000022000022000022000022000077
:103FA00022000022000000000000000000000800C5
:103FB0000804001002002001004000808000410041
:103FC00000220000140000080000000000000000B3
:103FD000000001E000026000020000040038040755
:103FE0003804083804180006100003F00001E0004F
:103FF000000000007F0003FFE0070070041F1808A6
:10400000FF8809C088093F8805E09006013001FE5D
:10401000400000000000080000380001C8001E0831
:1040200001E20006020007820000FA00000F88008B
:1040300001F800001800000800000004000807FF55
:10404000F807FFF804080804080804080806180818
:1040500003F41803E7F00001E00000000000000096
:104060003F8001FFE0038070020018040008040094
:104070000804000806001007003001C0C00000005E
:1040800004000804000807FFF807FFF8040008040C
:10409000000804000802001003807001FFE0007FA8
:1040A0008000000004000807FFF807FFF804080874
:1040B000040808040808040808043F080600080665
:1040C000001801806000000004000807FFF807FFE7
:1040D000F8040808040808040800040800043F0065
:1040E0000600000600000180000000000000000043
:1040F0003F8001FFE00380700600180400080402FE
:10410000080402080203F001C3F0000200000200EC
:1041100004000807FFF807FFF8040808000800007B
:10412000080000080000080004080807FFF807FF5F
:10413000F804000800000000000004000804000863
:1041400004000807FFF807FFF8040008040008044B
:104150000008000000000000000000000006000051
:104160000704000104000104000307FFFE07FFFC31
:104170000400000400000400000000000400080720
:10418000FFF807FFF8040C08003000005C0005870A
:10419000000701C8060078040018000008000000AD
:1041A00004000807FFF807FFF804000804000800EF
:1041B00000080000080000080000080000180000C7
:1041C0006000000004000807FFF807F00800FF0087
:1041D0000007F00001E0003E0003C00807FFF807F9
:1041E000FFF804000800000000000804000807FFB2
:1041F000F807800801E008007800001E000403C0F2
:104200000400F007FFF804000004000000000000B4
:104210007F8001FFE003807006001804000804009E
:104220000806001803003001FFE0007F8000000056
:1042300004000807FFF807FFF80404080404080452
:104240000400040400040C0002080003F80001F05C
:1042500000000000000000007F8001FFE00380708C
:104260000600980400880400E806003C03003601BC
:10427000FFE6007F8400000004000807FFF807FF46
:10428000F8040808040800040800040E00040B8069
:104290000610E003F07801E01800000800000001BB
:1042A000E0E003F030063810041808041C08040C81
:1042B00008040E080207180787F00001E00000005C
:1042C0000180000600000400000400080400080744
:1042D000FFF807FFF80400080400080400000600C7
:1042E0000001800000000004000007FFE007FFF06D
:1042F000040018000008000008000008040010076F
:10430000FFE004000000000004000006000007E0D9
:1043100000047E000007E00000780001C0001E00DD
:1043200005E0000600000400000000000400000793
:10433000C00004FF000003F80403C0063C0007FCB3
:1043400000040FF80001E0043E0007C00004000074
:1043500000000004000806001807806804E18000DF
:104360003E000017000461C80780780400180400AC
:104370000800000004000006000007800004F008A8
:10438000003C08001FF80007F80018080460080542
:104390008000060000040000000000018008070003
:1043A000380600E8040188040608041808046008B8
:1043B00005C00807001804006000000000000000AD
:1043C00000000000000000000000003FFFFE200091
:1043D0000220000220000220000200000000000075
:1043E0000000000000000C000003000000E00000DE
:1043F00018000007000001C000003000000E00009F
:104400000100000000000000000020000220000267
:104410002000022000023FFFFE000000000000001C
:10442000000000000000000000000000000000008C
:1044300000100000200000400000400000200000AC
:10444000100000000000000000000000000001005B
:104450000001000001000001000001000001000057
:104460000100000100000100000100000100000146
:1044700000000000000000000020000020000010EC
:10448000000010000000000000000000000000001C
:10449000000000000000000000F00019F80019986A
:1044A000002108002208002208002210003FF0002E
:1044B0001FF800000800001800000004000007FFBB
:1044C000F80FFFF000181000100800200800200866
:1044D000003018001FF0000FC000000000000000B6
:1044E00007C0001FF000183000200800200800203E
:1044F00008003C08001C10000060000000000000E4
:104500000000000007C0001FF0003818002008005D
:10451000200804200804101007FFF80FFFF0000027
:10452000100000000000000000000007C0001FF0A5
:104530000011300021080021080021080031080086
:104540001F100007200000000000000020000020D5
:104550000800200801FFF803FFF8062008042008DF
:104560000420080700000300000000000000000015
:10457000000E000E7E001FF30031A10020A10030CC
:10458000B1003FB3002F1E00301E003000000000BD
:1045900000000004000807FFF80FFFF800100800F3
:1045A0002000002000002008003FF8001FF8000055
:1045B00008000000000000000000002008002008A3
:1045C000002008063FF8067FF800000800000800F9
:1045D00000080000000000000000000000000000D3
:1045E00003000003002001002001062003063FFE17
:1045F000067FFC0000000000000000000000000436
:10460000000807FFF80FFFF800010800020000078C
:10461000000038C8002078002018000008000000C2
:10462000000000000000040008040008040008075F
:10463000FFF80FFFF8000008000008000008000065
:1046400000000000002008003FF8003FF8001008BC
:10465000002008003FF8001FF800100800200800A4
:104660003FF8003FF8000008000000002008003F6D
:10467000F8003FF80010080020000020000020088B
:10468000003FF8001FF800000800000000000000D4
:1046900007C0000FF000183000300800200800208C
:1046A00008003008001830000FF00007C0000000BC
:1046B000000000002001003FFF003FFF001011003C
:1046C0002009002008002008003038001FF0000FEB
:1046D000C00000000000000007C0001FF0003818F4
:1046E000002008002008002009001011001FFF0012
:1046F0003FFF00000100000000200800200800200B
:1047000008003FF8003FF8000808001008002008E3
:104710000020000038000018000000000000000029
:104720000000001C78001E18003308002308002138
:10473000880021980030F8003CF0000000000000E4
:1047400000000000200000200000200000FFF00317
:10475000FFF80020080020080020080000300000BA
:1047600000000000000000002000003FF0007FF883
:10477000000018000008000008002010003FF800AA
:104780007FF000001000000000000000200000305A
:1047900000003E000023C00000F80000300001C00F
:1047A000002E00003000002000000000002000006B
:1047B0003800002F800001F80020F0003700003F93
:1047C000000021F00000F000270000380000200069
:1047D000000000000008002008003038003C4800BD
:1047E00027800003800024C80038380020180020EB
:1047F00008000000000000002000002003003C0131
:104800000023810000FE000070002380003C0000B7
:104810002000002000000000000000000000003C1C
:10482000180020780020C8002388002E08003808CF
:1048300000301800007000000000000000000000C0
:10484000000000000000000000000000080000144C
:10485000001FE3FC20000220000200000000000016
:104860000000000000000000000000000000000048
:104870000000FFFFFF00000000000000000000003B
:1048800000000000000000000000200002200002E4
:104890001FE3FC00140000080000000000000000FE
:1048A0000000000000000000000000300000400098
:1048B0000040000040000020000010000018000030
:1048C000080000080000300000000000814E0000D9
:1048D000815800008140000000000000002003E03B
:1048E00001053C000108280C5032030500000000BF
:1048F00000000017191E148B2B0D33350C08000017
:10490000009A0311000100000000003200000020A6
:104910005894C50200000004B02300932B007B359F
:10492000006941005B4F005B0000000000000000D8
:104930000000000000000000000000000000000077
:104940000000000000000000000000000204060853
:104950000A0C0E10121416181AFF000000000000B6
:104960000000000000000000000000020406080A29
:104970000C0F10121316181C1D1E1F202122242696
:10498000FFFFFFFF000000FFFFFFFFFFFFFFFFFF34
:10499000FFFFFFFF4801002003E001050D000108B3
:1049A000280F503203050000000000000000000046
:1049B000008A2A0C45470C0800000002022D000066
:1049C000000000036432000000286494C502070060
:1049D00000049C2C008F3400843F007C4C00775BEB
:1049E0000077000000000000000000000000000050
:1049F00000000000000000000000000000000000B7
:104A000000000000000018161412100E0C0A080610
:104A10000402FFFF00000000000000000000000092
:104A20000000000016181C1D1E1F20212224131236
:104A3000100F0A0806040200FFFFFFFFFFFF00003F
:104A40000000000000000000000000000000240141
:104A500097E0011001050D00010000055A465311B1
:104A600000001111141414220A04000000000000B8
:104A700053001400008400003C0000641E288727B7
:104A8000083234050D203360110224000064808058
:104A900014020000548968856D827280767D7B7B6C
:104AA00000000000000000F0503CFFFF0700000085
:104AB00002141403040021640A0000000000000036
:104AC00000000000000000000000000000000000E6
:104AD00000003220503C3C00000000000D060C0598
:104AE0000B040A03FFFFFFFFFFFF000102030405A1
:104AF000060708090A0B0C0DFFFFFFFFFFFFFFFF72
:104B0000FFFFFFFF000000000000000000000000A9
:104B100000003C00051E00022A1E19140200030AB0
:104B2000050000000000000001FFFF8622030000D6
:104B300033000F000000503C50000000002A01002C
:104B40002003E00147802003E0014780E0011001DD
:104B500050802003E0015080814E000000000000E2
:104B6000000000003C3C2D4754502D4552524F52FE
:104B70002D3E3E2049324320526561643A20307810
:104B8000253034582C2025642062797465732066A2
:104B900061696C65642C20657272636F64653A208C
:104BA0002564212050726F6365737320726573658D
:104BB000742E0A003C3C2D4754502D4552524F5202
:104BC0002D3E3E204932432057726974653A2030A9
:104BD00078253034582C2025642062797465732040
:104BE0006661696C65642C20657272636F64653AF6
:104BF000202564212050726F636573732072657382
:104C000065742E0A00000000284C002000000120DE
:104C100054010000F20200200C4D0020540101203C
:104C20004C060000883200205122A05A3208B110F0
:104C300009972003E0010A3504100869090F503272
:104C40003311200A321111288CAADC5804331E3C7F
:104C500052311A403B135038100E8D20164E4C7CAA
:104C600005283E280D4324100801396BC094842D7B
:104C7000401054B0419D498D527F5A75626C42502C
:104C8000142808F0503C88882750418112501F0298
:104C9000780A50FFE45961A33CB0781D56A2075032
:104CA0001E05060708090A0B0C0D0E0F101215162B
:104CB0001718191A1B1D1FFF01780E1F1E1D1C1B24
:104CC0001A1918171514131216111008307F7F7F48
:104CD000FF5464380A804607503C32140A64E710D7
:104CE0000C110262320314500CE214501354108859
:104CF0000832A20764A4B6014D8901718495BA0AED
:0C4D00002D010203048C690CA910810035
:04000005200001AD29
:00000001FF
