:020000042000DA
:10000000C0040120C10100205F1C0020E10F00207E
:100010005D1C0020990200205126002000000000F5
:100020000000000000000000000000009D200020F3
:100030009103002000000000DD1C0020A121002011
:10004000DB010020DB010020DB010020DB010020C0
:10005000DB010020DB010020DB010020DB010020B0
:10006000DB010020DB010020DB010020DB010020A0
:10007000DB010020DB010020DB010020DB01002090
:10008000DB010020DB010020DB010020DB01002080
:10009000DB010020DB010020DB010020DB01002070
:1000A000DB010020DB010020DB010020DB01002060
:1000B000DB010020DB010020DB010020DB01002050
:1000C000DB010020DB010020DB010020DB01002040
:1000D000DB010020E1230020DB010020DB01002008
:1000E00093030020DB010020DB010020DB01002066
:1000F000DB010020DB010020DB010020DB01002010
:10010000DB010020DB010020DB010020DB010020FF
:10011000DB010020DB010020DB010020DB010020EF
:10012000DB010020DB010020DB010020DB010020DF
:10013000DB010020DB010020DB010020DB010020CF
:10014000DB010020DB010020DB010020DB010020BF
:10015000DB010020DB010020DB010020DB010020AF
:10016000DB010020DB010020DB010020DB0100209F
:10017000DB010020DB010020DB010020DB0100208F
:10018000DB010020DB010020DB010020DB0100207F
:10019000DB010020DB010020DB010020DB0100206F
:1001A000DB010020DB010020DB010020DFF80CD0A8
:1001B00000F040F800480047152A0020C004012044
:1001C0000648804706480047FEE7FEE7FEE7FEE7F1
:1001D000FEE7FEE7FEE7FEE7FEE7FEE7A5210020DB
:1001E000AD010020D2B201E000F8012B491EFBD284
:1001F00070470022F6E710B513460A460446194632
:10020000FFF7F0FF204610BD30B50B460146002039
:100210002022012409E021FA02F59D4205D303FAC8
:1002200002F5491B04FA02F52844151EA2F1010249
:10023000F1DC30BD064C074D06E0E06840F00103FC
:1002400094E8070098471034AC42F6D3FFF7B2FFAA
:10025000B4390020D43900207CB50121080201F016
:100260003FFD4FF40064009401208DF8040000204D
:100270008DF8060002208DF807008DF80500054D69
:100280006946284600F0ECFB2146284600F036FC83
:100290007CBD000000200240FEE710B50121CC0526
:1002A000204601F02BFD2046BDE81040002101F062
:1002B00025BD000001460020024A52680A4200D0D3
:1002C0000120704700B0024030B500242A4B196865
:1002D0002A4A114019601968026811431960596B64
:1002E00021F007015963596B426811435963416812
:1002F000002928D001292DD0022930D0032933D05C
:10030000C1680A010169090244692403856821431F
:1003100015430D43996B0D439D638169D963196C36
:100320006FF30D011964196CC26911431964818C52
:1003300009045A6C02F040425A645A6C006A024343
:100340000A435A6430BDC1680A02018A0904047D67
:100350002406DBE7C1680A02018A0904D6E7C168FE
:100360004A010169C902D1E7C1684A0101698902EC
:100370004469E403CAE7000000B00240FCE0FCFF6F
:100380000248016841F001010160704700B002407D
:10039000704710B54FF40054204600F011F80028C3
:1003A00006D0204600F006F8BDE8104000F00CBD75
:1003B00010BD00000149086070470000143C014076
:1003C00001460020024A12680A4200D0012070470C
:1003D000143C014030B51B4A83790168002B2AD0B8
:1003E00013688B431360111D0B680468A3430B60F3
:1003F000017911440B68046823430B60114C0834E5
:100400002168036899432160231D19680568A94381
:1004100019604179102905D011440A680068024327
:100420000A6030BD216802681143216019680068C4
:100430000143196030BD0079104402688A430260AC
:1004400030BD0000003C014000224FF02043102846
:100450000AD0B0F5807F09D0B0F5805F09D0D3F81D
:100460005801814309D107E0586EFAE7D3F88400B8
:10047000F7E7D3F8A400F4E7012210467047000024
:10048000D0E9001211438268C068521E520142EA4C
:10049000402001430148016070470000500100A066
:1004A00070B50468A100A1F1C041D1F84011CE0B94
:1004B000F603D0E901121143D0E903231A43114393
:1004C0004269C36911438269056A11431943426A4B
:1004D0002943114331434FF02046002C3CD0D6F83D
:1004E00040416FF30E042B4322431343C6F84031BF
:1004F00002689200A2F1C042C2F84011016871B3D3
:100500008900A1F1C041D1F8481101F07043816A1E
:100510000A684C68521E641E42EA04148A68521E1D
:1005200044EA02240A8A521E44EA02421A43D6F8D6
:10053000483103F07043CC68898A641E2403491E45
:1005400044EA01511943C6F8481100688000A0F13F
:10055000C040C0F8482170BDC6F84011CEE7FFE7A3
:10056000D6F8481101F07041806A02684368521E53
:100570005B1E42EA03138268521E43EA0223C268EA
:10058000521E43EA0233028A521E43EA0243828A1F
:10059000007E521E43EA0252401E42EA00600843B7
:1005A000C6F8480170BD00B593B00121084601F0BE
:1005B000B3FB07200D9002200C90129006210F91A2
:1005C000119004210E9110900120019001020691DA
:1005D0000290402005908001099000200A90082197
:1005E000039109020891102104910CA90B91079025
:1005F00001A8FFF755FF13B000BD00002DE9FC5F17
:100600000121FC2001F06CFB02208DF804008DF824
:10061000050000208DF806008DF8070001200090ED
:100620006946D84800F01CFA0C220021D54800F099
:1006300055FA022000906946D24800F011FA0C22C7
:100640000121D04800F04AFA042600966946CD48B8
:1006500000F006FA0C220221CA4800F03FFA0820F6
:1006600000906946C74800F0FBF90C220321C548F9
:1006700000F034FA4FF01009CDF800906946C148F7
:1006800000F0EEF90C220421BE4800F027FA4FF0EA
:10069000200ACDF800A06946BA4800F0E1F90C2222
:1006A0000521B84800F01AFAB70200976946B54824
:1006B00000F0D6F90C221146B24800F00FFA4FF4C0
:1006C0000058CDF800806946AE4800F0C9F90C2208
:1006D0000D21AC4800F002FA350300956946A9489F
:1006E00000F0BEF90C220E21A64800F0F7F96C00CC
:1006F00000946946A34800F0B3F90C220F21A148E9
:1007000000F0ECF90120009069469F4800F0A8F93C
:100710000C2200219C4800F0E1F90220009069467B
:10072000994800F09DF90C220121974800F0D6F974
:1007300000966946944800F093F90C2202219248F1
:1007400000F0CCF9CDF8009069468F4800F088F9A8
:100750000C2204218C4800F0C1F9CDF800A06946B4
:10076000894800F07DF90C220521874800F0B6F990
:1007700000956946854800F073F90C220E218348E4
:1007800000F0ACF900946946804800F069F90C2249
:100790000F217E4800F0A2F90120009069467B48B5
:1007A00000F05EF90C220021784800F097F9022051
:1007B00000906946754800F053F90C2201217348F6
:1007C00000F08CF94FF08009CDF800906946704830
:1007D00000F046F90C2207216D4800F07FF9E61180
:1007E000009669466A4800F03BF90C2208216848E7
:1007F00000F074F94FF4007ACDF800A0694664481F
:1008000000F02EF90C220921614800F067F94FF43D
:10081000806BCDF800B069465D4800F021F90C22EC
:100820000A215B4800F05AF92011009069465848A7
:1008300000F016F90C220B21554800F04FF90097F3
:100840006946534800F00CF90C221146504800F05C
:1008500045F9CDF8008069464D4800F001F90C22B9
:100860000D214B4800F03AF900956946484800F0E0
:10087000F7F80C220E21464800F030F90094694642
:10088000434800F0EDF80C220F21414800F026F912
:10089000009669463D4800F0E3F80C2208213B48E9
:1008A00000F01CF9CDF800A06946384800F0D8F8EF
:1008B0000C220921354800F011F9CDF800B0694645
:1008C000324800F0CDF80C220A21304800F006F939
:1008D000402000902F4D6946284600F0C1F80C22B8
:1008E0000621284600F0FAF8012000902A4F6946B8
:1008F000384600F0B5F80C220021384600F0EEF83A
:100900002111009169461F4800F0AAF80C220B2122
:100910001C4800F0E3F8009469461B4800F0A0F87A
:100920000C220F21184800F0D9F8009669461648A5
:1009300000F096F80C220821134800F0CFF8CDF80B
:1009400000906946284600F08BF80C2207212846C3
:1009500000F0C4F80220009069460D4800F080F8CD
:100960000C2201210A4800F0B9F8012000906946E4
:10097000074800F075F80C220021054800F0AEF899
:10098000BDE8FC9F0014024000180240000C024029
:1009900000100240001C02400008024010B5FFF7A2
:1009A0002DFEFFF700FEBDE8104000F001B800008A
:1009B0002DE9FF41012600960825019500240294A7
:1009C000039420210120FFF73FFD0028F9D168465C
:1009D000FFF756FD1D48401E0028FCD10227009756
:1009E00001950294039420210120FFF72DFD00289A
:1009F000F9D16846FFF744FD032000900195029766
:100A0000039420210120FFF71FFD0028F9D168463B
:100A1000FFF736FD40F22220042100910195029655
:100A2000039020210120FFF70FFD0028F9D168462F
:100A3000FFF726FD40F2AB2000F00AF8202101204C
:100A4000FFF702FD0028F9D1BDE8FF81FFFF0F008D
:100A500002490A6842EA400008607047540100A059
:100A60002DE9F041002201274FF0030C07FA02F5AF
:100A70000B682B40AB422CD1066853000CFA03F4F0
:100A8000A64306600E79D0F800809E4046EA08062C
:100A900006600E79012E01D0022E12D18668A6437F
:100AA00086604E79D0F808809E4046EA0806866047
:100AB0004668AE43466045688E799640B6B2354387
:100AC0004560C568A543C560CC799C40C3681C439C
:100AD000C460521C102AC9D3BDE8F08110B54B0781
:100AE000DB0E9A40C90800EB8100016A0F249C408C
:100AF000A1430162016A1143016210BD4183704745
:100B0000018370472DE9F04186B001214FF4C47094
:100B100001F0E6F80121880501F00CF901218F03AD
:100B2000384601F015F902248DF8144001268DF89D
:100B3000166000258DF817508DF81540DFF8A48059
:100B4000042211464046FFF7C9FF1020049004A973
:100B50004046FFF785FF042205214046FFF7BEFF10
:100B60002020049004A94046FFF77AFFE00104909A
:100B70008DF814608DF815408DF816508DF81740DB
:100B800004A91948FFF76CFF200304908DF8146046
:100B90008DF815408DF816508DF8174004A91348AC
:100BA000FFF75EFF6002ADF80A00ADF80C70104868
:100BB00000904BF6FF70ADF80600ADF804500A2027
:100BC000ADF808000B4C6946204600F079FA012187
:100BD000204600F01EFA0121204600F002FA06B07D
:100BE000BDE8F081001C024000200240000C0240E1
:100BF000801A0600005800401CB500200190042215
:100C000001A948F2401000F0D3FA9DF807000090C7
:100C10009DF806309DF805209DF8041001A001F014
:100C20002FFD1CBD47543931782050726F647563B5
:100C300074204944203A2025632563256325630AEF
:100C40000A0000002DE9FC474FF4005600960120F1
:100C50008DF8040002248DF8054000258DF806501B
:100C60008DF80740124F69463846FFF7F9FEDFF866
:100C700044904FF4807841464846FFF73FFFDFF845
:100C800038A0504601F0A2FB41464846FFF738FF26
:100C9000504601F09BFB00968DF804508DF80540FE
:100CA0008DF8075069463846FFF7DAFEBDE8FC8745
:100CB000000C024000200240FFFF0F002DE9FC5F06
:100CC00088461446A8F16505DFF8F0A04FF40069E6
:100CD0006FF47F0B4FF0FF364FF05047632D0DD26E
:100CE000C82C0BDA642C09DDAAF8189096213B4633
:100CF00032220846009600F0D4FB07E096213B46DE
:100D000032220846CDF800B000F0CBFB4FF4A571BD
:100D1000632D0ED2B4F5BE7F0BDAB4F58C7F08DDFF
:100D2000AAF818903B4632229620009600F0B9FBB4
:100D300006E03B4632229620CDF800B000F0B1FB31
:100D4000A8F1FB08B8F17C0F36D2B4F5DC7F33DABA
:100D5000282C31DD4FF07F40CDE90070A4F119005F
:100D6000054681B232234FF496781A46404600F089
:100D7000F8FBCDE90076ABB232220021404600F00C
:100D8000F0FB04F11900CDE9007681B24FF4F07365
:100D90003222404600F0E5FB283C04EBD4703221BF
:100DA00001EB60010648018001884FF0804001F0AE
:100DB00097FA044901200870BDE8FC9F002002401A
:100DC00002000120040001202DE9F04F97B000201F
:100DD0001690502101A8FFF70CFA48F24E1A012292
:100DE00015A9504600F0E4F99DF8540000F0800188
:100DF00000F00F0509B10A2D07DD012216A95046A2
:100E000000F050FA17B0BDE8F08FDFF8D090002D59
:100E10002ADD4FF6FF7000EAC50201A948F2501022
:100E200000F0C6F900241DE001A810F8341000EB12
:100E3000C400427841EA02210EB28178C27841EAC8
:100E400002210FB20179427941EA02210FFA81F8B9
:100E5000C07909F8040043463A463146FFF72EFFB1
:100E6000641CE4B2AC42DFDBDFF874B01B4C9BF9CE
:100E70000100503CA8420FDD01280FD0401B40B2BA
:100E800004EBC00114F83000B1F90630B1F90420C8
:100E9000B1F9021000F026F8002015E0B4F9063090
:100EA000B4F90420B4F90210207800F01BF8F3E73D
:100EB00004EBC0014E808F80A1F8068019F8001065
:100EC00004F83010401CC0B2A842F1DB8BF801508E
:100ED000012216A9504600F0E5F993E7B40001207D
:100EE000040001202DE9FC5F894614462C494FF48B
:100EF00000604883A9F165052A4E0127DFF8A88024
:100F00006FF47F0A4FF0504B632D10D2C82C0EDACD
:100F1000642C0CDD96215B4632220846CDF800A0F9
:100F200000F0BFFA30880A38308088F80070632DEE
:100F300013D2B4F5BE7F10DAB4F58C7F0DDD5B46BD
:100F400032224FF4A5719620CDF800A000F0A9FA46
:100F500030880A30308088F80070A9F1FB09B9F1B7
:100F60007C0F1AD2B4F5DC7F17DA282C15DD4FF090
:100F70007F40CDE900B0A4F1190081B232231A46B6
:100F80004FF4967000F0EDFA283C04EBD470322157
:100F900001EB6000308088F80070BDE8FC9F000025
:100FA0000020024002000120040001200346080A3C
:100FB000C9B2A138C0EB001202EB401001EB4000B7
:100FC000A13800EBC0008001C11700EB5170C010C8
:100FD000024908444822194600F050BF0040EE0084
:100FE000FEE7002904D0018841F480610180704748
:100FF000018821F4806101807047034600209A8AAD
:101000001B8B1B041A4322F07F42914300D1012025
:101010007047002904D0018841F001010180704728
:10102000018821F0010101807047000030B585B0D2
:101030004FF40055009500248DF8044002208DF8EF
:1010400005008DF8074069461048FFF709FD0D219E
:10105000032001F025F803958DF8104008208DF845
:10106000110001258DF8125003A8FFF7B3F92820CD
:101070008DF808008DF809408DF80A408DF80B5066
:1010800002A800F0EDFD05B030BD0000000C0240EC
:10109000002904D0018841F48071018070470188E3
:1010A00021F4807101807047002904D0018841F447
:1010B000007101807047018821F400710180704740
:1010C0007FB504460D46A08820F03F06684600F034
:1010D0004DFE02982749B0FBF1F189B20E43A6807C
:1010E000228822F001022280234B2A689A4209D8E2
:1010F0005200B0FBF2F080B2042800D20420491C58
:10110000218423E0EB88A3F53F46FF3E0BD002EBA2
:10111000C20303EB0212B0FBF2F080B240F4804055
:10112000020506D007E002EB4202B0FBF2F080B20B
:10113000F6E740F0010040F400404FF4967251434E
:101140004FF47A72B1FBF2F1491C2184A08320880C
:1011500040F00100208020884FF6F5310840A98832
:101160006A89114301432180A88929890843208184
:101170007FBD000040420F00A0860100008AC0B27F
:101180007047002A02D041F0010101E001F0FE01A8
:10119000018270470182704710B5FFF7B3FCFFF77B
:1011A00051FDFFF743FFBDE81040FFF725BD0000EC
:1011B0002DE9F04780460D461446DFF8DC9001210A
:1011C0004846FFF765FF354E48463146FFF715FFA5
:1011D0000028F9D00022BA214846FFF7D2FF304F4D
:1011E00048463946FFF709FF0028F9D04FEA182191
:1011F0004846FFF7CFFF2A4FBF1C39464846FFF746
:10120000FCFE0028F9D008F0FF014846FFF7C2FFB6
:1012100039464846FFF7F1FE0028F9D0012148463B
:10122000FFF736FF31464846FFF7E7FE0028F9D0C2
:101230004E460122BA213046FFF7A3FF174F7F1C0D
:1012400039463046FFF7D9FE0028F9D00121304653
:10125000FFF7C7FE114F3F370FE039463046FFF723
:10126000CCFE0028F9D03046FFF788FF05F8010BC7
:1012700064B101213046FFF7B4FE641EA4B2ECD283
:101280003046BDE8F0470121FFF70EBF0021304690
:10129000FFF7A7FEF1E7000000580040010003003F
:1012A000820007002DE9F04106460D461446DFF89E
:1012B000888001214046FFF7EBFE204F404639462B
:1012C000FFF79BFE0028F9D00022BA214046FFF725
:1012D00058FF1B4F40463946FFF78FFE0028F9D0D4
:1012E000310A4046FFF756FF154FBF1C39464046AE
:1012F000FFF783FE0028F9D0F1B246463046FFF7EB
:1013000049FF39463046FFF778FE0028F9D00AE059
:1013100015F8011B3046FFF73DFF39463046FFF711
:101320006CFE0028F9D0641EA4B2F1D23046BDE8AC
:10133000F0410121FFF7B8BE005800400100030052
:101340008200070070B54FF05041094A0023002485
:101350004FF448754FF4F076002010C110C2401CC5
:1013600080B2A842F9D35B1C9BB2B342F4D370BDE8
:10137000007017D02DE9FC5F0546DDE90C760C46C0
:1013800092469B464FF4F0784FF4487937E07E2838
:1013900018D804F10C01414502D90024183DADB222
:1013A00005F10C01494501D900250024CDE9007063
:1013B0005B4652462146284601F008FB0C34A4B295
:1013C000761C1CE004F11800404502D90024183DA9
:1013D000ADB205F11800484501D900250024308838
:1013E000010201EB102080B2CDE900705B4652464D
:1013F0002146284601F05AFA1834A4B2B61C3078B7
:101400000028C4D1BDE8FC9F2DE9F047089E524258
:101410000024022505EB4205370C1FFA86FC0E1945
:1014200006EBC609A0EB020809EB061608EB461905
:1014300023F829C003EB8909A9F8027000EB02091F
:1014400009EB461623F826C003EB860677800E1BB1
:1014500006EBC60A0AEB061609EB461923F829C063
:1014600003EB8909A9F8027008EB461623F826C099
:1014700003EB860677802E46A64208DC641C05EB4B
:1014800044056D1CE24202D1964200DC00269642E1
:1014900003DD521C05EB42056D1C002ABFDDBDE8D3
:1014A000F0872DE9FF4F85B08046129F8A46994606
:1014B00007980321A1EB40060024079D45E0DDB11C
:1014C0004FF6FF7000EA4502AAEB050081B2CDE9B4
:1014D00000970490A8EB0400934680B2012300F02B
:1014E00077F80498CDE9009781B208EB04005A46DA
:1014F00080B2012300F06CF8DCB14FF6FF7000EA17
:101500004402AAEB040081B2CDE900970390A8EB56
:101510000500934680B2012300F05AF80398CDE904
:10152000009781B208EB05005A4680B2012300F013
:101530004FF8002E03DA06EB8406B61D04E0601BAC
:1015400006EB80060A366D1E641CAC42B7D94B46CA
:10155000009751464046079AFFF756FF09B0BDE88D
:10156000F08F2DE9F0478AB01546DDE912249A463E
:1015700001EBC10303EB011100EB411002EB80060C
:101580004FEA1469C4F30747C4F30728E4B2FEF72F
:1015900084FE4FF44030009000200190CDF80C8084
:1015A00002940497CDF814900696C5F548700790FC
:1015B000CDF820A009956846FEF786FEFEF7E0FE0E
:1015C0000220FEF777FE0028FAD00AB0BDE8F087C7
:1015D0002DE9F0478AB01546DDE912249A4601EB61
:1015E000C10303EB011100EB411002EB80064FEA4F
:1015F0001469C4F30747C4F30728E4B2FEF74DFEAD
:101600004FF44030009000200190CDF80C800294FF
:101610000497CDF8149006960121BAF1000F11D06D
:1016200040F21F300790089509916846FEF74CFE7E
:10163000FEF7A6FE0220FEF73DFE0028FAD00AB013
:10164000BDE8F087079008910995EEE72DE9FC5F6A
:10165000012140F2FF1000F043FB4FF00408CDF8E9
:10166000008002208DF805008DF8040000208DF820
:1016700006008DF807006946AA48FFF7F1F90E2227
:101680000221A848FFF72AFA4FF00809CDF8009088
:101690006946A448FFF7E4F90E220321A148FFF7A9
:1016A0001DFA4FF4807ACDF800A069469D48FFF7F7
:1016B000D7F90E2208219B48FFF710FA0124009465
:1016C00069469948FFF7CCF9092200219648FFF7AF
:1016D00005FA4FF4006BCDF800B069469348FFF768
:1016E000BFF90E220B219148FFF7F8F92003009073
:1016F00069468E48FFF7B4F90E220C218B48FFF79C
:10170000EDF90220009069468748FFF7A9F9092200
:1017100001218548FFF7E2F9402500956946844894
:10172000FFF79EF90E2206218148FFF7D7F9202006
:10173000009069467F48FFF793F90E2205217D4806
:10174000FFF7CCF9009569467A48FFF789F90E2230
:1017500006217848FFF7C2F9600300906946714896
:10176000FFF77EF90E220D216E48FFF7B7F9A602AA
:10177000009669466E48FFF773F909220A216C4802
:10178000FFF7ACF9E003009069466648FFF768F997
:101790000E220F216348FFF7A1F9009469466648BD
:1017A000FFF75EF90E2200216348FFF797F98027C3
:1017B000009769466148FFF753F90E2207215F48F9
:1017C000FFF78CF9CDF8008069465B48FFF748F9D0
:1017D0000E2202215848FFF781F94FF01008CDF88A
:1017E000008069465348FFF73BF90E220421514817
:1017F000FFF774F92003009069464D48FFF730F970
:101800000E220C214A48FFF769F900954C4D6946B4
:101810002846FFF725F90E2206212846FFF75EF934
:10182000CDF800B069464248FFF71AF90E220B21A5
:101830003F48FFF753F9CDF8008069463E48FFF76F
:101840000FF90E2204213C48FFF748F9CDF800902B
:1018500069463648FFF704F90E2203213348FFF7A3
:101860003DF9CDF800A069462F48FFF7F9F80E22A0
:1018700008212D48FFF732F94FF40079CDF8009098
:1018800069462948FFF7ECF80E2209212648FFF7A0
:1018900025F9009769462648FFF7E2F80E2207214E
:1018A0002348FFF71BF9009669462348FFF7D8F84D
:1018B0000E220A212048FFF711F9CDF80090694661
:1018C0001D48FFF7CDF80E2209211B48FFF706F946
:1018D00000961C4E69463046FFF7C2F80E220A21D8
:1018E0003046FFF7FBF802208DF805008DF8044024
:1018F00000208DF806008DF80740CDF8008069467D
:101900002846FFF7ADF8009769462846FFF7A8F884
:1019100010212846FFF7F4F880212846FFF7F0F859
:10192000BDE8FC9F001C0240000402400000024091
:10193000001802400010024000200240000802404F
:10194000000C02400014024010B590B02F2000900F
:1019500040F24E3001901820029040F2F7100390B0
:1019600000210491FF2005900890079006900991AE
:101970004FF4C0600A9007200B904FF050400C903D
:1019800040F683400D90C01E0E904FF4F0700F9003
:10199000064C6946204600F00FF90121204600F070
:1019A000FFF8012000F054F910B010BD8468014028
:1019B00010B5FFF74BFE00F00BF8FFF7C5FF00F086
:1019C00045F8012000F088F8BDE81040FFF7BABCE8
:1019D00000B58FB00121880600F0BAF90121C805D1
:1019E00000F07EF902220F21642000F03DFA4FF44E
:1019F000803000F029FA012000F030FA3D2000F09C
:101A000007FA0028FAD0002000900190029003907D
:101A1000FF210C910D910E91049005902E200690BF
:101A20001720079040F24E30089040F2F7100990CE
:101A30004FF459700A9040F20D200B90684600F068
:101A40005BF8012000F038F80FB000BD10B590B081
:101A50002F20009040F24E3001901820029040F26A
:101A6000F710039000210491FF2005900890079043
:101A7000069009914FF4C0600A9007200B900C4823
:101A80000C9040F683400D90C01E0E904FF4F07005
:101A90000F90084C6946204600F08EF80121204640
:101AA00000F07EF8012000F0D3F810B010BD000067
:101AB000007017D0046901400649002804D0086866
:101AC00040F0010008607047086820F001000860DD
:101AD00070470000186801400649002804D00868D3
:101AE00040F4803008607047086820F48030086057
:101AF000704700001868014030B5264A136826492F
:101B00000B401360038A1B04146845692C431C4373
:101B10001460121D13680B401360038B1B041468C0
:101B2000C5692C431C431460121D13680B401360DD
:101B3000038C1B041468456A2C431C431460121D5B
:101B400013680B401360018D09041368C46A2343B2
:101B50000B431360111D0A68104B1A400A60D0E94C
:101B600000231A43D0E9023423431A430B681A4373
:101B70000A60416B0A02018E0B04064924310C688D
:101B800004F07F440C600C68806B134304431C43D7
:101B90000C6030BD0868014000F800F08F88FE0F2F
:101BA000002904D0016841F001010160704701681B
:101BB00021F001010160704770B58A881204436802
:101BC00003F4704343600B68134343608A89120433
:101BD000836803F4704383608B68134383600269F6
:101BE00022F0070202610A690261CA6913020A8CC3
:101BF000120491F8244024068569002585618E69C8
:101C000022431E4316438661426922F0FF0242616D
:101C10004A694261C26940F207739A43C261D1E9DD
:101C20000A231A43C261826A85620A6B82620A8F42
:101C30001204C36A03F0E023C3624B6B1343C36215
:101C4000026B6FF30A020263C96B016370BD00008F
:101C5000014908607047000024680140FEE77047B2
:101C600030B50F23C27801250178002A1FD0154A0C
:101C7000126802F4E062C2F5E062C2F30722C2F128
:101C80000404D3404278A24084781C4014432201CB
:101C900001F1E02181F80024007800F01F018D405F
:101CA0004009800000F1E020C0F8005130BD01F093
:101CB0001F0085404809800000F1E020C0F88051F5
:101CC00030BD00000CED00E0024908430249086005
:101CD000704700000000FA050CED00E070470000BE
:101CE000054A002903D0116801431160704711684B
:101CF000814311607047000030380240054A0029D6
:101D000003D011680143116070471168814311606D
:101D10007047000010380240054A002903D01168BE
:101D200001431160704711688143116070470000E2
:101D300038380240054A002903D011680143116078
:101D400070471168814311607047000040380240BD
:101D5000054A002903D011680143116070471168DA
:101D600081431160704700004438024070B5244B35
:101D7000196801F00C01234C00291ED0224E0429C1
:101D80001DD008291DD00460196801F0F00109096F
:101D90001E4A545C0168E14041601C6804F4E05450
:101DA000A40A145D21FA04F484601B6803F4604300
:101DB0005B0BD25CD140C16070BD0460E4E706609B
:101DC000E2E70F4A121F1168C1F38055116801F054
:101DD0003F0135B1B6FBF1F11468C4F388146143D7
:101DE00005E0B4FBF1F11468C4F388146143126890
:101DF000C2F30142521C5200B1FBF2F10160C3E791
:101E0000083802400024F40040787D0106000120DB
:101E100002460020510901290BD002290DD00949A1
:101E2000096802F01F02012393400B4200D00120F9
:101E30007047044974390968F3E70249091F0968C2
:101E4000EFE7000074380240034A116821F4403182
:101E500001431160704700008C3802400149086757
:101E60007047000000004742800140EA01600249DB
:101E700040EA027008607047883802402DE9F0415E
:101E800006460D46144600F0E5FB134F4021384648
:101E9000FEF734FE132000F079F8300E00F076F8EB
:101EA000C6F3074000F072F8C6F3072000F06EF8A2
:101EB000F0B200F06BF804E0FF2000F067F805F8DE
:101EC000010B641EA4B2F7D240213846FEF718FE7B
:101ED000BDE8F04100F0BEBB00140240002904D070
:101EE000018841F0400101807047018821F04001E4
:101EF0000180704770B5104D40212846FEF7FEFD69
:101F0000152000F043F8FF2000F040F8044640217F
:101F10002846FEF7F5FDE0070CD140212846FEF7E4
:101F2000EDFDB72000F032F82846BDE870404021B2
:101F3000FEF7E6BD70BD000000140240024600201E
:101F400012890A4200D00120704780897047818140
:101F5000704730B5028802F441530A884C88CD8816
:101F600022438C882C4322430C8922434C892243F0
:101F70008C892243CC8922431A430280828B22F42B
:101F800000628283098A018230BD000070B5054677
:101F90000A4C02212046FFF7D1FF0028F9D029463C
:101FA0002046FFF7D4FF01212046FFF7C7FF002896
:101FB000F9D02046FFF7C9FFC0B270BD0050014004
:101FC0002DE9F04188B001212020FFF789FE012191
:101FD0000805FFF7BDFE01278DF81C7000248DF861
:101FE0001E408DF81F4002258DF81D5040200690A0
:101FF000DFF8A08006A94046FEF732FD8DF81C50A0
:102000008DF81E408DF81F408DF81D5005220721C8
:102010004046FEF763FD8020069006A94046FEF785
:102020001FFD052208214046FEF758FDE8010690F5
:1020300006A94046FEF714FD052209214046FEF799
:102040004DFD2E02069606A94046FEF709FDADF8A5
:102050001040ADF80C70ADF80A50ADF81440ADF872
:102060000840ADF80440ADF812404FF48270ADF86E
:102070000600ADF80E60084C01A92046FFF769FF85
:1020800001212046FFF72AFFFFF734FF08B0BDE823
:10209000F081000000140240005001407047000031
:1020A00010B58A07120F0F23934021F0030406494D
:1020B000214401F608010C689C430C600B689040B9
:1020C00003430B6010BD0000003001401CB500212F
:1020D000019100912E4A106840F4803010604FF456
:1020E000A043106800F4003000900198401C01905B
:1020F000009810B901989842F3D11068800302D576
:102100000120009000E00091009801283FD1204874
:102110004030016841F0805101601E49086840F478
:10212000404008601A48083003680360036843F4BD
:1021300000430360036843F4A0530360041F164B7D
:102140002360136843F08073136013689B01FCD510
:102150000A6842F480320A604A68D203FCD50A68F1
:1021600042F400320A604A689203FCD50B4A40F2FE
:1021700005711160016821F003010160016841F0FF
:10218000020101600168C1F381010229FAD11CBD7D
:102190000038024000700040195A4007003C0240DD
:1021A0007047000010B51248016841F470010160E9
:1021B0001048016841F0010101600E4A0021083217
:1021C000116002680C4B1A400260031D0B4A1A6032
:1021D000026822F48022026006480C300160FFF79A
:1021E00075FF03494FF000608039086010BD0000A2
:1021F00088ED00E000380240FFFFF6FE10300024BA
:10220000002904D0018841F0010101807047018854
:1022100021F001010180704710B500F0B7F800F01F
:102220009FF800F041F80121BDE810408807FFF752
:10223000E7BF000030B5028C22F001020284058C59
:102240008388028B22F0700222F003020C88144370
:1022500025F002028D8915434A882A430D4DA84274
:1022600002D00D4DA8420FD122F00805CA892A4399
:1022700022F004058A882A4323F4807323F4007330
:102280000D8A1D434B8A2B438380048389684163F5
:10229000028430BD0000014000040140028B22F0A6
:1022A00008020A430283704710B586B06020ADF87B
:1022B00004000120ADF806000848008803900020C3
:1022C000ADF810004FF0804401A92046FFF7B2FF9F
:1022D00008212046FFF7E2FF06B010BD02000120F2
:1022E0004163704730B50288164C174DA0420DD09F
:1022F000A8420BD0B0F1804F08D0144B984205D0C3
:10230000134B984202D0134B984203D122F0700332
:102310004A881A43104B984206D0104B984203D07B
:1023200022F440730A891A4302804A68C2620A880A
:102330000285A04201D0A84201D1897A01860121FB
:10234000818230BD000001400004014000040040D3
:1023500000080040000C0040001000400014004045
:102360000EB501210846FFF7E5FCFA20019040F286
:102370008330ADF800000020ADF80800ADF8020091
:1023800069464FF08040FFF7ADFF0EBD1CB501213F
:102390000846FFF7A5FC0C4C012205212046FEF75C
:1023A0009DFB2021009102218DF8041000218DF861
:1023B00006108DF8071003218DF805106946204698
:1023C000FEF74EFB1CBD00000000024001B502E01C
:1023D0000098401E009000980028F9D108BD000028
:1023E00010B50B4C2021204600F026F800280ED016
:1023F00040F22551204600F00FF8204600F09CF8EE
:1024000004490870BDE81040084600F09DB810BDB2
:1024100000100140000001208A05C9430180704777
:10242000002904D0818941F400518181704781895C
:1024300021F40051818170470246002012880A422F
:1024400000D00120704710B540F66A13C1F3421363
:1024500001F01F040121A140012B07D0022B07D05E
:1024600014303AB102680A43026010BD0C30F8E73C
:102470001030F6E702688A43026010BD7FB504465B
:102480000D46208A20F44051E88808432082A08924
:1024900041F20C618843A9882A8911436A89024361
:1024A0001143A181A08A20F44071A8890843A08229
:1024B0006846FFF75BFC1E48844202D01D488442F8
:1024C00001D1039800E00298A189090408D500EB26
:1024D000C00101EB001029684900B0FBF1F007E0F2
:1024E00000EBC00101EB001029688900B0FBF1F09E
:1024F0006422B0FBF2F109010B096FF018056B4380
:1025000000EB8300A3891D044FF0320307D503EBD2
:10251000C000B0FBF2F000F00700084306E003EB58
:102520000010B0FBF2F000F00F00084320817FBDE7
:1025300000100140001401408088C0F3080070477B
:10254000C1F308018180704770B5054600240B4E29
:10255000295D3046FFF7F4FF80213046FFF76CFF1E
:102560000028F9D0641CA4B2285D0028F0D1802195
:102570003046FFF761FF0028F9D070BD0010014020
:1025800030B587B001210846FFF7AAFB01211020D2
:10259000FFF7DEFB01218805FFF7A2FB4FF4E060A7
:1025A000FFF792FB25208DF8180001208DF81B0005
:1025B00000248DF819408DF81A0006A8FFF750FB8B
:1025C00002208DF814008DF816408DF817408DF814
:1025D0001500400204901C4D07220A212846FEF7F0
:1025E0007DFA04A92846FEF73BFA691504910722F3
:1025F00009212846FEF772FA04A92846FEF730FAA8
:102600004FF4E1300090ADF80C400C20ADF80A001A
:10261000ADF80840ADF80640ADF804400B4C6946F3
:102620002046FFF72BFF40F2255501222946204680
:10263000FFF709FF29462046FFF7EEFE012120465D
:10264000FFF7EEFE07B030BD000002400010014071
:10265000FEE7000010B5094C40212046FEF74EFA77
:102660000520FFF793FCFF20FFF790FCC007FAD18D
:102670002046BDE810404021FEF742BA0014024057
:102680000FB4054B10B503A9044A029800F02CF8CA
:1026900010BC5DF814FB0000F12900201800012097
:1026A0000FB4084B10B504A902AA039800F01CF857
:1026B000044602A9002000F0F3F8204610BC5DF8A3
:1026C00014FB0000A128002002E008C8121F08C166
:1026D000002AFAD170477047002001E001C1121FA3
:1026E000002AFBD1704700002DE9FF4F8BB09A46BE
:1026F0000F460546002606E025280BD052460D99C8
:1027000090476D1C761C28780028F5D10FB0304614
:10271000BDE8F08F0024A0460122604900E0044398
:1027200015F8013F203B02FA03F00842F7D1287860
:102730002E2817D115F8010F44F004042A280ED0D2
:102740006FF02F022878A0F1300109290AD808EB90
:10275000880102EB410100EB01086D1CF2E757F81C
:10276000048B6D1C287869283ED006DC0028CDD06B
:1027700063280BD0642804D136E0732810D0752864
:102780004BD052460D999047761C85E017F8040B04
:102790008DF8000000208DF80100E946012003E0DB
:1027A00057F8049B4FF0FF3061074FF0000401D44D
:1027B0000AE0641C44450DDA8442FADB19F804107F
:1027C0000029F6D106E0641C8442FCDB19F80410F1
:1027D0000029F8D1264404E019F8010B52460D995E
:1027E0009047641EF8D257E001CF4FF00A0B002843
:1027F00002DA40422D2102E0210504D52B218DF87B
:102800002410012103E0E10705D02021F7E70DF1B5
:10281000200908910CE00021F9E701CF4FF00A0BE5
:10282000F9E75946FDF7F0FC01F1300209F8012DF6
:102830000028F6D1ADEB090000F1200B600701D4B0
:102840004FF00108D84502DDA8EB0B0000E00020A6
:102850008046002406E009A85246005D0D99904785
:10286000641C761C08988442F5DB04E03020524654
:102870000D999047761CB8F10001A8F10108F5DC2C
:1028800005E019F8010B52460D999047761CBBF1F3
:102890000001ABF1010BF4DC6D1C34E709280100E9
:1028A0000A68531C0B601070704700002DE9F0415E
:1028B0000E46DDE90651074690461C462248FEF7C3
:1028C00075FB06EBC60101EB061107EB411008EBA7
:1028D000800000221C4F002102EB4206F31993F8FE
:1028E00002C02CFA01FC5FEACC7C01D0046000E05D
:1028F0000560001D491CC9B20829F0D3002193F8D6
:1029000001C02CFA01FC5FEACC7C01D0046000E03D
:102910000560001D491CC9B20829F0D30021BB5D28
:10292000CB40DB0701D0046000E00560001D491CBE
:10293000C9B20829F3D300F54260521CD2B2182A5A
:10294000C9D3BDE8F08100001C000120F0B5DDE92D
:102950000556002401EBC10707EB011100EB411004
:1029600002EB8000002104EB4407BA1992F802C080
:102970002CFA01FC5FEACC7C01D0036000E005602A
:10298000001D491C0829F1D3002192F801C02CFA3E
:1029900001FC5FEACC7C01D0036000E00560001D13
:1029A000491C0829F1D30021F25DCA40D20701D0A9
:1029B000036000E00560001D491C0829F4D300F500
:1029C0004260641C0C2CCDD3F0BD00007CB5DDE969
:1029D0000654203CE4B2054E04EBC40406EB840428
:1029E000CDE90054FFF7B2FF7CBD0000582C002059
:1029F00070B50446064DE1B22846FFF7A1FD8021DF
:102A00002846FFF719FD0028F9D0204670BD0000C8
:102A1000001001408AB0FFF7B3FDFEF7BDFBFFF7E2
:102A2000FBFBFDF7BBFFFFF7CBFAFEF7C1FFFDF79E
:102A300013FC6BA04FF0FF34CDE900404FF07F480E
:102A400043466A4AC82140F28A20FEF793FC684850
:102A5000008864214843FA21B0FBF1F265A102A885
:102A6000FFF71EFE02AECDE900464FF4FA7A434668
:102A70005E4A96215046FEF77DFC5D480088B421F1
:102A800032384843C82190FBF1F25EA102A8FFF75B
:102A900007FECDE900464346544A96214FF4C870DC
:102AA000FEF768FC6FF47F0596214FF05043322209
:102AB00008460095FEF7F5FC00954FF4A5754FF01C
:102AC0005043322229469620FEF7EBFC96214FF028
:102AD000504333220846CDF80080FEF795FC4FF0B6
:102AE0005043332229469620CDF80080FEF78CFC17
:102AF00048A04FF0000BCDE900B043463B4A7E2191
:102B00008A20FEF737FC45A0CDE900B04346374A9E
:102B10004FF499718A20FEF72DFC4FF05040CDE91B
:102B2000000832231A4628214FF49670FEF719FD4B
:102B30003C4F51E032202E4D00E028802988322978
:102B4000FBD34FF0FA0901E0A5F800902888FA2895
:102B5000FAD829884FF08040FFF7C2FB288864210B
:102B60004843B0FBF9F230A102A8FFF799FD33A06A
:102B7000CDE90040DFF8749023464A464FF4A57132
:102B80005046FEF7F7FBCDE9004643464A469621FC
:102B90005046FEF7EFFB2888B42132384843C8215D
:102BA00090FBF1F226A102A8FFF77AFD28A0CDE95B
:102BB00000404FF4C87523464A464FF487712846B3
:102BC000FEF7D8FBCDE9004643464A469621284603
:102BD000FEF7D0FB87F800B038780128FCD1A9E7D0
:102BE000B6E6BBFABFD8D6C600000000007017D00A
:102BF00002000120B5B1C7B0D5BCBFD5B1C8A3BADA
:102C000025640000B5B1C7B0BDC7B6C8A3BA256476
:102C100000000000BCF5D0A100000000D4F6BCD339
:102C20000000000004000120B5B1C7B0D5BCBFD57D
:102C3000B1C8A3BB256425250000000020000000CA
:102C4000B5B1C7B0BDC7B6C8A3BA2564A1E300003B
:102C500020202020200000000000000000000000D4
:102C60000000000000000000000000000000000064
:102C70000000000000000000000000000000000054
:102C800000000000000000000000000FEE380FF010
:102C900038000000000000000000000000000000FC
:102CA0000000000000000100000600000C000038D9
:102CB00000003100000600000C0000380000300069
:102CC0000000000000000000C18000C1F800FF808B
:102CD0000FC18000C18000C18000C18000DFF80FFB
:102CE000E18000C18000000000000000000001C081
:102CF000E003E0F00630480418081FFFFE048E08C9
:102D00000787F00381E000000000000003E0000CF2
:102D100018000808180C18E003F300001C000063FA
:102D2000E0038C180C0808000C180003E0000000F9
:102D30000003E00007F007E8180FFC08081F080F61
:102D4000E3C807C0F0001070001F980010080010C2
:102D500008000030000000000000310000320000D8
:102D60001C00000000000000000000000000000047
:102D70000000000000000000000000000000000053
:102D800000000000000000007F000180C00600304D
:102D900008000810000420000200000000000020CD
:102DA00000021000040800080600300180C0007F07
:102DB0000000000000000000000000000000000013
:102DC000000000006600006600002400001C0000F7
:102DD000080003FFC0011800003C0000240000664A
:102DE0000000660000000000080000080000080065
:102DF00000080000080001FFC000080000080000F3
:102E000008000008000008000000000000000000AA
:102E10003100003200001C00000000000000000033
:102E200000000000000000000000000000000000A2
:102E30000800000800000800000800000800000862
:102E40000000080000080000080000080000000062
:102E500000000000000000003800003800003800CA
:102E60000000000000000000000000000000000062
:102E70000000000000000000000600001C000070C0
:102E8000000180000E0000380000C0000700001C98
:102E90000000300000000000000000007F8001FF03
:102EA000E0038070060018040008040008060018FB
:102EB00003807001FFE0007F800000000000000040
:102EC000000002000802000802000803FFF807FFE4
:102ED000F8000008000008000008000000000000E2
:102EE00000000001C01802C0380400480400880433
:102EF0000308040608060C0803F80801E07800003F
:102F000000000000000000038070038070040008CF
:102F100004080804080806180803F41801E7F0007C
:102F200001E00000000000000000000003000005B8
:102F30000000190000210000C10801010807FFF886
:102F400007FFF80001080001080001000000000070
:102F500000E007FCD004080804100804100804105E
:102F600008041838040FF00407C000000000000037
:102F7000000000003F8001FFE003843002081804D5
:102F80001008041008041008071810030FF00007B9
:102F9000C0000000000000000000038000060000E8
:102FA0000400000400F80407F804180004E0000717
:102FB000000006000000000000000001C1E003F373
:102FC000F0063610041808040808040C08040C085D
:102FD00006161803F3F001C1E00000000000000035
:102FE000F80003FC30030638040208040208040257
:102FF000080404100308F001FFC0007F0000000077
:1030000000000000000000000000000000000000C0
:103010003838003838003838000000000000000060
:1030200000000000000000000000000000000000A0
:1030300000000000301B00301C00000000000000F9
:103040000000000000000000000000000000000878
:1030500000001400002200004100008080010040B8
:10306000020020040010080008000000000000001A
:103070002200002200002200002200002200002284
:1030800000002200002200002200002200000000B8
:1030900000000000000008000804001002002001E9
:1030A0000040008080004100002200001400000861
:1030B0000000000000000000000001E000026000CD
:1030C0000200000400380407380408380418000619
:1030D000100003F00001E000000000007F0003FF8B
:1030E000E0070070041F1808FF8809C088093F889E
:1030F00005E09006013001FE4000000000000800DD
:1031000000380001C8001E0801E200060200078224
:103110000000FA00000F880001F800001800000805
:1031200000000004000807FFF807FFF8040808047F
:10313000080804080806180803F41803E7F000015B
:10314000E0000000000000003F8001FFE00380700D
:103150000200180400080400080400080600100714
:10316000003001C0C000000004000804000807FF90
:10317000F807FFF804000804000804000802001023
:1031800003807001FFE0007F80000000040008075A
:10319000FFF807FFF80408080408080408080408F2
:1031A00008043F08060008060018018060000000BF
:1031B00004000807FFF807FFF804080804080804DB
:1031C0000800040800043F0006000006000001801B
:1031D00000000000000000003F8001FFE00380705D
:1031E0000600180400080402080402080203F001A3
:1031F000C3F000020000020004000807FFF807FF08
:10320000F804080800080000080000080000080092
:1032100004080807FFF807FFF80400080000000092
:10322000000004000804000804000807FFF807FF76
:10323000F804000804000804000800000000000072
:103240000000000000060000070400010400010463
:10325000000307FFFE07FFFC040000040000040059
:103260000000000004000807FFF807FFF8040C083E
:10327000003000005C000587000701C806007804E4
:10328000001800000800000004000807FFF807FF0E
:10329000F804000804000800000800000800000806
:1032A000000008000018000060000000040008078B
:1032B000FFF807F00800FF000007F00001E0003E03
:1032C0000003C00807FFF807FFF80400080000002B
:1032D00000000804000807FFF807800801E0080064
:1032E0007800001E000403C00400F007FFF804008B
:1032F00000040000000000007F8001FFE0038070F8
:103300000600180400080400080600180300300135
:10331000FFE0007F8000000004000807FFF807FFBF
:10332000F8040408040408040400040400040C0065
:1033300002080003F80001F0000000000000000097
:103340007F8001FFE003807006009804008804007D
:10335000E806003C03003601FFE6007F8400000021
:1033600004000807FFF807FFF80408080408000431
:103370000800040E00040B800610E003F07801E062
:103380001800000800000001E0E003F030063810EB
:10339000041808041C08040C08040E080207180787
:1033A00087F00001E000000001800006000004003A
:1033B0000004000804000807FFF807FFF8040008ED
:1033C0000400080400000600000180000000000462
:1033D000000007FFE007FFF00400180000080000ED
:1033E0000800000804001007FFE0040000000000CF
:1033F00004000006000007E000047E000007E00073
:1034000000780001C0001E0005E000060000040076
:103410000000000004000007C00004FF000003F8E3
:103420000403C0063C0007FC00040FF80001E004A0
:103430003E0007C000040000000000040008060071
:103440001807806804E180003E000017000461C88E
:10345000078078040018040008000000040000063B
:10346000000007800004F008003C08001FF8000777
:10347000F800180804600805800006000004000039
:103480000000000180080700380600E804018804F5
:10349000060804180804600805C00807001804009E
:1034A00060000000000000000000000000000000BC
:1034B0000000003FFFFE200002200002200002204A
:1034C00000020000000000000000000000000C00EE
:1034D0000003000000E0000018000007000001C029
:1034E00000003000000E000001000000000000009D
:1034F00000002000022000022000022000023FFF06
:10350000FE000000000000000000000000000000BD
:10351000000000000000000000100000200000403B
:10352000000040000020000010000000000000002B
:103530000000000000000100000100000100000187
:103540000000010000010000010000010000010076
:103550000001000001000001000000000000000068
:1035600000200000200000100000100000000000FB
:10357000000000000000000000000000000000004B
:1035800000F00019F8001998002108002208002214
:1035900008002210003FF0001FF80000080000188B
:1035A00000000004000007FFF80FFFF000181000F3
:1035B0001008002008002008003018001FF0000F3D
:1035C000C00000000000000007C0001FF00018301D
:1035D000002008002008002008003C08001C100003
:1035E00000600000000000000000000007C0001F95
:1035F000F0003818002008002008042008041010EB
:1036000007FFF80FFFF000001000000000000000AE
:1036100000000007C0001FF0001130002108002149
:1036200008002108003108001F10000720000000DA
:1036300000000000200000200800200801FFF8031F
:10364000FFF80620080420080420080700000300F3
:103650000000000000000000000E000E7E001FF3BE
:103660000031A10020A10030B1003FB3002F1E00A7
:10367000301E00300000000000000004000807FFBA
:10368000F80FFFF8001008002000002000002008BC
:10369000003FF8001FF800000800000000000000D4
:1036A0000000002008002008002008063FF8067FE0
:1036B000F8000008000008000008000000000000FA
:1036C00000000000000000000300000300200100D3
:1036D0002001062003063FFE067FFC0000000000DC
:1036E0000000000000000004000807FFF80FFFF8CA
:1036F0000001080002000007000038C80020780020
:103700002018000008000000000000000000040075
:103710000804000804000807FFF80FFFF80000087D
:103720000000080000080000000000000020080061
:103730003FF8003FF8001008002008003FF8001F85
:10374000F8001008002008003FF8003FF8000008CB
:10375000000000002008003FF8003FF800100800BB
:103760002000002000002008003FF8001FF80000A3
:10377000080000000000000007C0000FF000183033
:103780000030080020080020080030080018300031
:103790000FF00007C0000000000000002001003F03
:1037A000FF003FFF00101100200900200800200842
:1037B000003038001FF0000FC000000000000000C3
:1037C00007C0001FF0003818002008002008002063
:1037D00009001011001FFF003FFF00000100000062
:1037E000002008002008002008003FF8003FF800F3
:1037F0000808001008002008002000003800001809
:1038000000000000000000000000001C78001E18EE
:103810000033080023080021880021980030F800B8
:103820003CF000000000000000000000200000202C
:103830000000200000FFF003FFF80020080020082F
:103840000020080000300000000000000000000020
:103850002000003FF0007FF8000018000008000082
:1038600008002010003FF8007FF00000100000006A
:10387000000000002000003000003E000023C000D7
:1038800000F80000300001C0002E000030000020D1
:1038900000000000002000003800002F800001F828
:1038A0000020F0003700003F000021F00000F00091
:1038B0002700003800002000000000000008002061
:1038C00008003038003C480027800003800024C8EE
:1038D0000038380020180020080000000000000018
:1038E0002000002003003C010023810000FE0000B6
:1038F00070002380003C0000200000200000000039
:10390000000000000000003C180020780020C800E3
:103910002388002E080038080030180000700000CE
:103920000000000000000000000000000000000097
:103930000000000008000014001FE3FC200002202B
:103940000002000000000000000000000000000075
:1039500000000000000000000000FFFFFF0000006A
:103960000000000000000000000000000000000057
:1039700000002000022000021FE3FC0014000008E9
:103980000000000000000000000000000000000037
:103990000000003000004000004000004000002017
:1039A00000001000001800000800000800003000AF
:1039B00000000000D4390020000001201C0000009D
:1039C000C8260020F03900201C000120A4040000BB
:1039D000D826002000003200000000000000010294
:1039E00003040102030406070809000000000000A8
:04000005200001AD29
:00000001FF
